{
  "contractName": "FlightSuretyApp",
  "abi": [
    {
      "constant": true,
      "inputs": [],
      "name": "REGISTRATION_FEE",
      "outputs": [
        {
          "name": "",
          "type": "uint256"
        }
      ],
      "payable": false,
      "stateMutability": "view",
      "type": "function"
    },
    {
      "inputs": [
        {
          "name": "dataContract",
          "type": "address"
        }
      ],
      "payable": false,
      "stateMutability": "nonpayable",
      "type": "constructor"
    },
    {
      "anonymous": false,
      "inputs": [
        {
          "indexed": false,
          "name": "airline",
          "type": "address"
        },
        {
          "indexed": false,
          "name": "flight",
          "type": "string"
        },
        {
          "indexed": false,
          "name": "timestamp",
          "type": "uint256"
        },
        {
          "indexed": false,
          "name": "status",
          "type": "uint8"
        }
      ],
      "name": "FlightStatusInfo",
      "type": "event"
    },
    {
      "anonymous": false,
      "inputs": [
        {
          "indexed": false,
          "name": "airline",
          "type": "address"
        },
        {
          "indexed": false,
          "name": "flight",
          "type": "string"
        },
        {
          "indexed": false,
          "name": "timestamp",
          "type": "uint256"
        },
        {
          "indexed": false,
          "name": "status",
          "type": "uint8"
        }
      ],
      "name": "OracleReport",
      "type": "event"
    },
    {
      "anonymous": false,
      "inputs": [
        {
          "indexed": false,
          "name": "index",
          "type": "uint8"
        },
        {
          "indexed": false,
          "name": "airline",
          "type": "address"
        },
        {
          "indexed": false,
          "name": "flight",
          "type": "string"
        },
        {
          "indexed": false,
          "name": "timestamp",
          "type": "uint256"
        }
      ],
      "name": "OracleRequest",
      "type": "event"
    },
    {
      "constant": true,
      "inputs": [],
      "name": "isOperational",
      "outputs": [
        {
          "name": "",
          "type": "bool"
        }
      ],
      "payable": false,
      "stateMutability": "pure",
      "type": "function"
    },
    {
      "constant": false,
      "inputs": [
        {
          "name": "name",
          "type": "string"
        },
        {
          "name": "wallet",
          "type": "address"
        }
      ],
      "name": "registerAirline",
      "outputs": [
        {
          "name": "success",
          "type": "bool"
        },
        {
          "name": "votes",
          "type": "uint256"
        }
      ],
      "payable": false,
      "stateMutability": "nonpayable",
      "type": "function"
    },
    {
      "constant": false,
      "inputs": [
        {
          "name": "airline",
          "type": "address"
        },
        {
          "name": "flight",
          "type": "string"
        },
        {
          "name": "timestamp",
          "type": "uint256"
        }
      ],
      "name": "fetchFlightStatus",
      "outputs": [],
      "payable": false,
      "stateMutability": "nonpayable",
      "type": "function"
    },
    {
      "constant": false,
      "inputs": [],
      "name": "registerOracle",
      "outputs": [],
      "payable": true,
      "stateMutability": "payable",
      "type": "function"
    },
    {
      "constant": true,
      "inputs": [],
      "name": "getMyIndexes",
      "outputs": [
        {
          "name": "",
          "type": "uint8[3]"
        }
      ],
      "payable": false,
      "stateMutability": "view",
      "type": "function"
    },
    {
      "constant": false,
      "inputs": [
        {
          "name": "index",
          "type": "uint8"
        },
        {
          "name": "airline",
          "type": "address"
        },
        {
          "name": "flight",
          "type": "string"
        },
        {
          "name": "timestamp",
          "type": "uint256"
        },
        {
          "name": "statusCode",
          "type": "uint8"
        }
      ],
      "name": "submitOracleResponse",
      "outputs": [],
      "payable": false,
      "stateMutability": "nonpayable",
      "type": "function"
    }
  ],
  "bytecode": "0x60806040526000604051908082528060200260200182016040528015620000355781602001602082028038833980820191505090505b50600290805190602001906200004d92919062000123565b506000600360006101000a81548160ff021916908360ff1602179055503480156200007757600080fd5b5060405160208062001ee58339810180604052810190808051906020019092919050505033600160006101000a81548173ffffffffffffffffffffffffffffffffffffffff021916908373ffffffffffffffffffffffffffffffffffffffff160217905550806000806101000a81548173ffffffffffffffffffffffffffffffffffffffff021916908373ffffffffffffffffffffffffffffffffffffffff16021790555050620001f8565b8280548282559060005260206000209081019282156200019f579160200282015b828111156200019e5782518260006101000a81548173ffffffffffffffffffffffffffffffffffffffff021916908373ffffffffffffffffffffffffffffffffffffffff1602179055509160200191906001019062000144565b5b509050620001ae9190620001b2565b5090565b620001f591905b80821115620001f157600081816101000a81549073ffffffffffffffffffffffffffffffffffffffff021916905550600101620001b9565b5090565b90565b611cdd80620002086000396000f300608060405260043610610083576000357c0100000000000000000000000000000000000000000000000000000000900463ffffffff1680630e2c412914610088578063339d2590146101025780635f1cc0e61461010c57806364b4f7511461015f578063c10f27001461018a578063cd905dff14610209578063f83f11c014610238575b600080fd5b34801561009457600080fd5b506100e1600480360381019080803590602001908201803590602001919091929391929390803573ffffffffffffffffffffffffffffffffffffffff16906020019092919050505061029d565b60405180831515151581526020018281526020019250505060405180910390f35b61010a610c82565b005b34801561011857600080fd5b50610121610daa565b6040518082600360200280838360005b8381101561014c578082015181840152602081019050610131565b5050505090500191505060405180910390f35b34801561016b57600080fd5b50610174610f1f565b6040518082815260200191505060405180910390f35b34801561019657600080fd5b50610207600480360381019080803560ff169060200190929190803573ffffffffffffffffffffffffffffffffffffffff16906020019092919080359060200190820180359060200191909192939192939080359060200190929190803560ff169060200190929190505050610f2b565b005b34801561021557600080fd5b5061021e611544565b604051808215151515815260200191505060405180910390f35b34801561024457600080fd5b5061029b600480360381019080803573ffffffffffffffffffffffffffffffffffffffff1690602001909291908035906020019082018035906020019190919293919293908035906020019092919050505061154d565b005b600080600080600080600160009054906101000a900473ffffffffffffffffffffffffffffffffffffffff1673ffffffffffffffffffffffffffffffffffffffff163373ffffffffffffffffffffffffffffffffffffffff16141515610c76576000809054906101000a900473ffffffffffffffffffffffffffffffffffffffff1673ffffffffffffffffffffffffffffffffffffffff1663010c5c97336040518263ffffffff167c0100000000000000000000000000000000000000000000000000000000028152600401808273ffffffffffffffffffffffffffffffffffffffff1673ffffffffffffffffffffffffffffffffffffffff168152602001915050602060405180830381600087803b1580156103b957600080fd5b505af11580156103cd573d6000803e3d6000fd5b505050506040513d60208110156103e357600080fd5b8101908080519060200190929190505050151561048e576040517f08c379a00000000000000000000000000000000000000000000000000000000081526004018080602001828103825260228152602001807f43616c6c6572206973206e6f7420612072656769737465726564206169726c6981526020017f6e6500000000000000000000000000000000000000000000000000000000000081525060400191505060405180910390fd5b6000809054906101000a900473ffffffffffffffffffffffffffffffffffffffff1673ffffffffffffffffffffffffffffffffffffffff1663f53b6d65336040518263ffffffff167c0100000000000000000000000000000000000000000000000000000000028152600401808273ffffffffffffffffffffffffffffffffffffffff1673ffffffffffffffffffffffffffffffffffffffff168152602001915050602060405180830381600087803b15801561054a57600080fd5b505af115801561055e573d6000803e3d6000fd5b505050506040513d602081101561057457600080fd5b810190808051906020019092919050505015156105f9576040517f08c379a00000000000000000000000000000000000000000000000000000000081526004018080602001828103825260158152602001807f4169726c696e65206973206e6f742066756e646564000000000000000000000081525060200191505060405180910390fd5b6000809054906101000a900473ffffffffffffffffffffffffffffffffffffffff1673ffffffffffffffffffffffffffffffffffffffff1663010c5c97886040518263ffffffff167c0100000000000000000000000000000000000000000000000000000000028152600401808273ffffffffffffffffffffffffffffffffffffffff1673ffffffffffffffffffffffffffffffffffffffff168152602001915050602060405180830381600087803b1580156106b557600080fd5b505af11580156106c9573d6000803e3d6000fd5b505050506040513d60208110156106df57600080fd5b8101908080519060200190929190505050151515610765576040517f08c379a000000000000000000000000000000000000000000000000000000000815260040180806020018281038252601d8152602001807f4169726c696e6520697320616c7265616479207265676973746572656400000081525060200191505060405180910390fd5b6000809054906101000a900473ffffffffffffffffffffffffffffffffffffffff1673ffffffffffffffffffffffffffffffffffffffff16637f9e18086040518163ffffffff167c0100000000000000000000000000000000000000000000000000000000028152600401602060405180830381600087803b1580156107ea57600080fd5b505af11580156107fe573d6000803e3d6000fd5b505050506040513d602081101561081457600080fd5b8101908080519060200190929190505050935061083b6002856117b790919063ffffffff16565b9250600060028581151561084b57fe5b0614151561086a576108676001846117cd90919063ffffffff16565b92505b6004841015610978576000809054906101000a900473ffffffffffffffffffffffffffffffffffffffff1673ffffffffffffffffffffffffffffffffffffffff16630e2c41298a8a8a6040518463ffffffff167c010000000000000000000000000000000000000000000000000000000002815260040180806020018373ffffffffffffffffffffffffffffffffffffffff1673ffffffffffffffffffffffffffffffffffffffff16815260200182810382528585828181526020019250808284378201915050945050505050600060405180830381600087803b15801561095157600080fd5b505af1158015610965573d6000803e3d6000fd5b5050505060018080905095509550610c75565b60009150600090505b600280549050811015610a0f573373ffffffffffffffffffffffffffffffffffffffff166002828154811015156109b457fe5b9060005260206000200160009054906101000a900473ffffffffffffffffffffffffffffffffffffffff1673ffffffffffffffffffffffffffffffffffffffff161415610a045760019150610a0f565b806001019050610981565b81151515610aab576040517f08c379a00000000000000000000000000000000000000000000000000000000081526004018080602001828103825260278152602001807f43616c6c65722068617320616c72656164792063616c6c65642074686973206681526020017f756e6374696f6e0000000000000000000000000000000000000000000000000081525060400191505060405180910390fd5b60023390806001815401808255809150509060018203906000526020600020016000909192909190916101000a81548173ffffffffffffffffffffffffffffffffffffffff021916908373ffffffffffffffffffffffffffffffffffffffff1602179055505082600280549050101515610c68576000809054906101000a900473ffffffffffffffffffffffffffffffffffffffff1673ffffffffffffffffffffffffffffffffffffffff16630e2c41298a8a8a6040518463ffffffff167c010000000000000000000000000000000000000000000000000000000002815260040180806020018373ffffffffffffffffffffffffffffffffffffffff1673ffffffffffffffffffffffffffffffffffffffff16815260200182810382528585828181526020019250808284378201915050945050505050600060405180830381600087803b158015610bfd57600080fd5b505af1158015610c11573d6000803e3d6000fd5b505050506000604051908082528060200260200182016040528015610c455781602001602082028038833980820191505090505b5060029080519060200190610c5b929190611af7565b5060018395509550610c75565b6000600280549050955095505b5b50505050935093915050565b610c8a611b81565b670de0b6b3a76400003410151515610d0a576040517f08c379a000000000000000000000000000000000000000000000000000000000815260040180806020018281038252601c8152602001807f526567697374726174696f6e206665652069732072657175697265640000000081525060200191505060405180910390fd5b610d13336117e9565b9050604080519081016040528060011515815260200182815250600460003373ffffffffffffffffffffffffffffffffffffffff1673ffffffffffffffffffffffffffffffffffffffff16815260200190815260200160002060008201518160000160006101000a81548160ff021916908315150217905550602082015181600101906003610da3929190611ba4565b5090505050565b610db2611b81565b600460003373ffffffffffffffffffffffffffffffffffffffff1673ffffffffffffffffffffffffffffffffffffffff16815260200190815260200160002060000160009054906101000a900460ff161515610e76576040517f08c379a000000000000000000000000000000000000000000000000000000000815260040180806020018281038252601b8152602001807f4e6f74207265676973746572656420617320616e206f7261636c65000000000081525060200191505060405180910390fd5b600460003373ffffffffffffffffffffffffffffffffffffffff1673ffffffffffffffffffffffffffffffffffffffff168152602001908152602001600020600101600380602002604051908101604052809291908260038015610f15576020028201916000905b82829054906101000a900460ff1660ff1681526020019060010190602082600001049283019260010382029150808411610ede5790505b5050505050905090565b670de0b6b3a764000081565b60008660ff16600460003373ffffffffffffffffffffffffffffffffffffffff1673ffffffffffffffffffffffffffffffffffffffff1681526020019081526020016000206001016000600381101515610f8157fe5b602091828204019190069054906101000a900460ff1660ff16148061101057508660ff16600460003373ffffffffffffffffffffffffffffffffffffffff1673ffffffffffffffffffffffffffffffffffffffff1681526020019081526020016000206001016001600381101515610ff557fe5b602091828204019190069054906101000a900460ff1660ff16145b8061108557508660ff16600460003373ffffffffffffffffffffffffffffffffffffffff1673ffffffffffffffffffffffffffffffffffffffff168152602001908152602001600020600101600260038110151561106a57fe5b602091828204019190069054906101000a900460ff1660ff16145b151561111f576040517f08c379a00000000000000000000000000000000000000000000000000000000081526004018080602001828103825260238152602001807f496e64657820646f6573206e6f74206d61746368206f7261636c65207265717581526020017f657374000000000000000000000000000000000000000000000000000000000081525060400191505060405180910390fd5b8686868686604051602001808660ff1660ff167f01000000000000000000000000000000000000000000000000000000000000000281526001018573ffffffffffffffffffffffffffffffffffffffff1673ffffffffffffffffffffffffffffffffffffffff166c010000000000000000000000000281526014018484808284378201915050828152602001955050505050506040516020818303038152906040526040518082805190602001908083835b6020831015156111f657805182526020820191506020810190506020830392506111d1565b6001836020036101000a0380198251168184511680821785525050505050509050019150506040518091039020905060056000826000191660001916815260200190815260200160002060000160149054906101000a900460ff1615156112eb576040517f08c379a000000000000000000000000000000000000000000000000000000000815260040180806020018281038252602f8152602001807f466c69676874206f722074696d657374616d7020646f206e6f74206d6174636881526020017f206f7261636c652072657175657374000000000000000000000000000000000081525060400191505060405180910390fd5b60056000826000191660001916815260200190815260200160002060010160008360ff1660ff1681526020019081526020016000203390806001815401808255809150509060018203906000526020600020016000909192909190916101000a81548173ffffffffffffffffffffffffffffffffffffffff021916908373ffffffffffffffffffffffffffffffffffffffff160217905550507f43c853095c2752648493c88b4baac4d580d2594ffb00c6f1d4242d844514f7838686868686604051808673ffffffffffffffffffffffffffffffffffffffff1673ffffffffffffffffffffffffffffffffffffffff168152602001806020018481526020018360ff1660ff16815260200182810382528686828181526020019250808284378201915050965050505050505060405180910390a1600360056000836000191660001916815260200190815260200160002060010160008460ff1660ff1681526020019081526020016000208054905010151561153b577fe23f5229de535c091e3b7bec2665f5d698192d3b31393066e8987b7a05076b6c8686868686604051808673ffffffffffffffffffffffffffffffffffffffff1673ffffffffffffffffffffffffffffffffffffffff168152602001806020018481526020018360ff1660ff16815260200182810382528686828181526020019250808284378201915050965050505050505060405180910390a161153a8686868080601f016020809104026020016040519081016040528093929190818152602001838380828437820191505050505050858561198f565b5b50505050505050565b60006001905090565b60008061155933611995565b91508186868686604051602001808660ff1660ff167f01000000000000000000000000000000000000000000000000000000000000000281526001018573ffffffffffffffffffffffffffffffffffffffff1673ffffffffffffffffffffffffffffffffffffffff166c010000000000000000000000000281526014018484808284378201915050828152602001955050505050506040516020818303038152906040526040518082805190602001908083835b602083101515611632578051825260208201915060208101905060208303925061160d565b6001836020036101000a0380198251168184511680821785525050505050509050019150506040518091039020905060408051908101604052803373ffffffffffffffffffffffffffffffffffffffff1681526020016001151581525060056000836000191660001916815260200190815260200160002060008201518160000160006101000a81548173ffffffffffffffffffffffffffffffffffffffff021916908373ffffffffffffffffffffffffffffffffffffffff16021790555060208201518160000160146101000a81548160ff0219169083151502179055509050507f3ed01f2c3fc24c6b329d931e35b03e390d23497d22b3f90e15b600343e93df118287878787604051808660ff1660ff1681526020018573ffffffffffffffffffffffffffffffffffffffff1673ffffffffffffffffffffffffffffffffffffffff1681526020018060200183815260200182810382528585828181526020019250808284378201915050965050505050505060405180910390a1505050505050565b600081838115156117c457fe5b04905092915050565b600081830190508281101515156117e057fe5b80905092915050565b6117f1611b81565b6117f9611b81565b61180283611995565b81600060038110151561181157fe5b602002019060ff16908160ff168152505080600060038110151561183157fe5b602002015181600160038110151561184557fe5b602002019060ff16908160ff16815250505b80600060038110151561186657fe5b602002015160ff1681600160038110151561187d57fe5b602002015160ff1614156118b95761189483611995565b8160016003811015156118a357fe5b602002019060ff16908160ff1681525050611857565b8060016003811015156118c857fe5b60200201518160026003811015156118dc57fe5b602002019060ff16908160ff16815250505b8060006003811015156118fd57fe5b602002015160ff1681600260038110151561191457fe5b602002015160ff161480611953575080600160038110151561193257fe5b602002015160ff1681600260038110151561194957fe5b602002015160ff16145b156119865761196183611995565b81600260038110151561197057fe5b602002019060ff16908160ff16815250506118ee565b80915050919050565b50505050565b6000806000600a91508160ff166003600081819054906101000a900460ff168092919060010191906101000a81548160ff021916908360ff16021790555060ff16430340856040516020018083600019166000191681526020018273ffffffffffffffffffffffffffffffffffffffff1673ffffffffffffffffffffffffffffffffffffffff166c01000000000000000000000000028152601401925050506040516020818303038152906040526040518082805190602001908083835b602083101515611a785780518252602082019150602081019050602083039250611a53565b6001836020036101000a038019825116818451168082178552505050505050905001915050604051809103902060019004811515611ab257fe5b06905060fa600360009054906101000a900460ff1660ff161115611aed576000600360006101000a81548160ff021916908360ff1602179055505b8092505050919050565b828054828255906000526020600020908101928215611b70579160200282015b82811115611b6f5782518260006101000a81548173ffffffffffffffffffffffffffffffffffffffff021916908373ffffffffffffffffffffffffffffffffffffffff16021790555091602001919060010190611b17565b5b509050611b7d9190611c3e565b5090565b606060405190810160405280600390602082028038833980820191505090505090565b826003601f01602090048101928215611c2d5791602002820160005b83821115611bfe57835183826101000a81548160ff021916908360ff1602179055509260200192600101602081600001049283019260010302611bc0565b8015611c2b5782816101000a81549060ff0219169055600101602081600001049283019260010302611bfe565b505b509050611c3a9190611c81565b5090565b611c7e91905b80821115611c7a57600081816101000a81549073ffffffffffffffffffffffffffffffffffffffff021916905550600101611c44565b5090565b90565b611cae91905b80821115611caa57600081816101000a81549060ff021916905550600101611c87565b5090565b905600a165627a7a7230582033b798456b3836e1ee75dbd35416ee1c13f999cb7153f590b80a99fa323148c50029",
  "source": "pragma solidity ^0.4.25;\n\n// It's important to avoid vulnerabilities due to numeric overflow bugs\n// OpenZeppelin's SafeMath library, when used correctly, protects agains such bugs\n// More info: https://www.nccgroup.trust/us/about-us/newsroom-and-events/blog/2018/november/smart-contract-insecurity-bad-arithmetic/\n\nimport \"../node_modules/openzeppelin-solidity/contracts/math/SafeMath.sol\";\n\n/************************************************** */\n/* FlightSurety Smart Contract                      */\n/************************************************** */\ncontract FlightSuretyApp {\n    using SafeMath for uint256; // Allow SafeMath functions to be called for all uint256 types (similar to \"prototype\" in Javascript)\n    FlightSuretyData flightSuretyData;\n\n    /********************************************************************************************/\n    /*                                       DATA VARIABLES                                     */\n    /********************************************************************************************/\n\n    // Flight status codees\n    uint8 private constant STATUS_CODE_UNKNOWN = 0;\n    uint8 private constant STATUS_CODE_ON_TIME = 10;\n    uint8 private constant STATUS_CODE_LATE_AIRLINE = 20;\n    uint8 private constant STATUS_CODE_LATE_WEATHER = 30;\n    uint8 private constant STATUS_CODE_LATE_TECHNICAL = 40;\n    uint8 private constant STATUS_CODE_LATE_OTHER = 50;\n\n    address private contractOwner;              // Account used to deploy contract\n    address[] multiCalls = new address[](0);    // To track all the addresses that have called a function that needs to implement muti-party consensus\n\n \n    /********************************************************************************************/\n    /*                                       FUNCTION MODIFIERS                                 */\n    /********************************************************************************************/\n\n    // Modifiers help avoid duplication of code. They are typically used to validate something\n    // before a function is allowed to be executed.\n\n    /**\n    * @dev Modifier that requires the \"operational\" boolean variable to be \"true\"\n    *      This is used on all state changing functions to pause the contract in \n    *      the event there is an issue that needs to be fixed\n    */\n    modifier requireIsOperational() {\n         // Modify to call data contract's status\n        require(true, \"Contract is currently not operational\");  \n        _;  // All modifiers require an \"_\" which indicates where the function body will be added\n    }\n\n    /**\n    * @dev Modifier that requires the \"ContractOwner\" account to be the function caller\n    */\n    modifier requireContractOwner(){\n        require(msg.sender == contractOwner, \"Caller is not contract owner\");\n        _;\n    }\n\n    modifier isFunded(address wallet){\n        require(flightSuretyData.isAirlineFunded(wallet), \"Airline is not funded\");\n        _;\n    }\n\n    modifier isAllowedToRegisterAirline(){\n        if (msg.sender != contractOwner) {\n            require(flightSuretyData.isAirlineRegistered(msg.sender), \"Caller is not a registered airline\");\n            require(flightSuretyData.isAirlineFunded(msg.sender), \"Airline is not funded\");\n            _;\n        }\n    }\n\n    /********************************************************************************************/\n    /*                                       CONSTRUCTOR                                        */\n    /********************************************************************************************/\n\n    /**\n    * @dev Contract constructor\n    *\n    */\n    constructor(address dataContract)  public {\n        contractOwner = msg.sender;\n        flightSuretyData = FlightSuretyData(dataContract);\n    }\n\n    /********************************************************************************************/\n    /*                                       UTILITY FUNCTIONS                                  */\n    /********************************************************************************************/\n\n    function isOperational() public pure returns(bool) {\n        return true;  // Modify to call data contract's status\n    }\n\n    /********************************************************************************************/\n    /*                                     SMART CONTRACT FUNCTIONS                             */\n    /********************************************************************************************/\n\n  \n   /**\n    * @dev Add an airline to the registration queue\n    *\n    */   \n    function registerAirline(string name, address wallet )external isAllowedToRegisterAirline returns(bool success, uint256 votes){\n        require(!flightSuretyData.isAirlineRegistered(wallet), \"Airline is already registered\");\n        uint airlineCount = flightSuretyData.getAirlineCount();\n        uint votes_needed = airlineCount.div(2);\n        if (airlineCount % 2 != 0) {\n            votes_needed = votes_needed.add(1);                 //make an adjustment in case of odd number\n        }\n        if (airlineCount < 4) {                                 //register a new airline until there are at least four airlines registered\n            flightSuretyData.registerAirline(name, wallet);\n            return (true, 1);\n        } else {\n            bool isDuplicate = false;\n            for (uint i = 0; i < multiCalls.length; ++i) {\n                    if(multiCalls[i] == msg.sender){\n                        isDuplicate = true;\n                        break;\n                    }\n            }\n            require(!isDuplicate, \"Caller has already called this function\");\n            multiCalls.push(msg.sender);\n\n            if (multiCalls.length >= votes_needed) {            //check if airlines has multi-party consensus of 50% of registered airlines\n                flightSuretyData.registerAirline(name, wallet);\n                multiCalls = new address[](0);                  //re-initialize multi calls\n                return (true, votes_needed);\n            }\n            return (false, multiCalls.length);\n        }\n    }\n \n\n   /**\n    * @dev Called after oracle has updated flight status\n    * This is the function that is intended to be triggered when the Oracle comes back with a result\n    * and it has to decide where things go from there. (Be careful of status 20 )\n    */  \n    function processFlightStatus(address airline, string memory flight, uint256 timestamp, uint8 statusCode) internal pure{\n\n    }\n\n\n    // Generate a request for oracles to fetch flight information\n    function fetchFlightStatus(address airline, string flight, uint256 timestamp) external {\n        uint8 index = getRandomIndex(msg.sender);\n\n        // Generate a unique key for storing the request\n        bytes32 key = keccak256(abi.encodePacked(index, airline, flight, timestamp));\n        oracleResponses[key] = ResponseInfo({requester: msg.sender, isOpen: true});\n\n        emit OracleRequest(index, airline, flight, timestamp);\n    } \n\n\n// region ORACLE MANAGEMENT\n\n    // Incremented to add pseudo-randomness at various points\n    uint8 private nonce = 0;\n\n    // Fee to be paid when registering oracle\n    uint256 public constant REGISTRATION_FEE = 1 ether;\n\n    // Number of oracles that must respond for valid status\n    uint256 private constant MIN_RESPONSES = 3;\n\n\n    struct Oracle {\n        bool isRegistered;\n        uint8[3] indexes;\n    }\n\n    // Track all registered oracles\n    mapping(address => Oracle) private oracles;\n\n    // Model for responses from oracles\n    struct ResponseInfo {\n        address requester;                              // Account that requested status\n        bool isOpen;                                    // If open, oracle responses are accepted\n        mapping(uint8 => address[]) responses;          // Mapping key is the status code reported\n                                                        // This lets us group responses and identify\n                                                        // the response that majority of the oracles\n    }\n\n    // Track all oracle responses\n    // Key = hash(index, flight, timestamp)\n    mapping(bytes32 => ResponseInfo) private oracleResponses;\n\n    // Event fired each time an oracle submits a response\n    event FlightStatusInfo(address airline, string flight, uint256 timestamp, uint8 status);\n\n    event OracleReport(address airline, string flight, uint256 timestamp, uint8 status);\n\n    // Event fired when flight status request is submitted\n    // Oracles track this and if they have a matching index\n    // they fetch data and submit a response\n    event OracleRequest(uint8 index, address airline, string flight, uint256 timestamp);\n\n\n    // Register an oracle with the contract\n    function registerOracle()external payable {\n        // Require registration fee\n        require(msg.value >= REGISTRATION_FEE, \"Registration fee is required\");\n\n        uint8[3] memory indexes = generateIndexes(msg.sender);\n\n        oracles[msg.sender] = Oracle({isRegistered: true, indexes: indexes});\n    }\n\n    function getMyIndexes()view external returns(uint8[3]) {\n        require(oracles[msg.sender].isRegistered, \"Not registered as an oracle\");\n\n        return oracles[msg.sender].indexes;\n    }\n\n\n\n\n    // Called by oracle when a response is available to an outstanding request\n    // For the response to be accepted, there must be a pending request that is open\n    // and matches one of the three Indexes randomly assigned to the oracle at the\n    // time of registration (i.e. uninvited oracles are not welcome)\n    function submitOracleResponse(uint8 index, address airline, string flight, uint256 timestamp, uint8 statusCode) external{\n        require((oracles[msg.sender].indexes[0] == index) || (oracles[msg.sender].indexes[1] == index) || (oracles[msg.sender].indexes[2] == index), \"Index does not match oracle request\");\n\n\n        bytes32 key = keccak256(abi.encodePacked(index, airline, flight, timestamp)); \n        require(oracleResponses[key].isOpen, \"Flight or timestamp do not match oracle request\");\n\n        oracleResponses[key].responses[statusCode].push(msg.sender);\n\n        // Information isn't considered verified until at least MIN_RESPONSES\n        // oracles respond with the *** same *** information\n        emit OracleReport(airline, flight, timestamp, statusCode);\n        if (oracleResponses[key].responses[statusCode].length >= MIN_RESPONSES) {\n\n            emit FlightStatusInfo(airline, flight, timestamp, statusCode);\n\n            // Handle flight status as appropriate\n            processFlightStatus(airline, flight, timestamp, statusCode);\n        }\n    }\n\n\n    function getFlightKey(address airline, string flight, uint256 timestamp) pure internal returns(bytes32) {\n        return keccak256(abi.encodePacked(airline, flight, timestamp));\n    }\n\n    // Returns array of three non-duplicating integers from 0-9\n    function generateIndexes(address account) internal returns(uint8[3]) {\n        uint8[3] memory indexes;\n        indexes[0] = getRandomIndex(account);\n        \n        indexes[1] = indexes[0];\n        while(indexes[1] == indexes[0]) {\n            indexes[1] = getRandomIndex(account);\n        }\n\n        indexes[2] = indexes[1];\n        while((indexes[2] == indexes[0]) || (indexes[2] == indexes[1])) {\n            indexes[2] = getRandomIndex(account);\n        }\n\n        return indexes;\n    }\n\n    // Returns array of three non-duplicating integers from 0-9\n    function getRandomIndex(address account) internal returns (uint8){\n        uint8 maxValue = 10;\n\n        // Pseudo random number...the incrementing nonce adds variation\n        uint8 random = uint8(uint256(keccak256(abi.encodePacked(blockhash(block.number - nonce++), account))) % maxValue);\n\n        if (nonce > 250) {\n            nonce = 0;  // Can only fetch blockhashes for last 256 blocks so we adapt\n        }\n\n        return random;\n    }\n\n// endregion\n}\n\n/************************************************** */\n/* Link to FlightSurety Data                        */\n/************************************************** */\n    contract FlightSuretyData {\n        function isOperational() external view returns (bool);\n\n        function setOperatingStatus(bool mode) external;\n\n        function registerFlight(string name, uint256 timestamp, address airline) external;\n\n        function isFlightRegistered(string name, uint256 timestamp, address airline) external view returns (bool);\n\n        function registerAirline(string name, address wallet) external;\n\n        function isAirlineRegistered(address wallet) external view returns (bool);\n\n        function isAirlineFunded(address wallet) external view returns (bool);\n\n        function getAirlineCount() external view returns (uint256);\n\n        function buy(string flight, uint256 timestamp, address airline, address insuree) external payable;\n\n        function creditInsurees(string flight, uint256 timestamp, address airline) external;\n\n        function pay(address insuree) external;\n\n        function fund(address sender) external payable;\n}",
  "sourcePath": "/Users/rinatakahashi/Desktop/Development/Udacity/5.Daap_with_autonomous_SmartContract/BDND-project4-FlightSurety/contracts/FlightSuretyApp.sol",
  "compiler": {
    "name": "solc",
    "version": "0.4.26+commit.4563c3fc.Emscripten.clang"
  },
  "schemaVersion": "3.0.16",
  "updatedAt": "2019-09-16T08:08:47.015Z",
  "devdoc": {
    "methods": {
      "registerAirline(string,address)": {
        "details": "Add an airline to the registration queue    "
      }
    }
  },
  "userdoc": {
    "methods": {
      "isOperational()": {
        "notice": "*****************************************************************************************"
      }
    }
  }
}