{
  "contractName": "FlightSuretyData",
  "abi": [
    {
      "constant": true,
      "inputs": [],
      "name": "AIRLINE_MIN_FUNDS",
      "outputs": [
        {
          "name": "",
          "type": "uint256"
        }
      ],
      "payable": false,
      "stateMutability": "view",
      "type": "function"
    },
    {
      "constant": true,
      "inputs": [],
      "name": "MAX_INSURANCE_POLICY",
      "outputs": [
        {
          "name": "",
          "type": "uint256"
        }
      ],
      "payable": false,
      "stateMutability": "view",
      "type": "function"
    },
    {
      "inputs": [],
      "payable": false,
      "stateMutability": "nonpayable",
      "type": "constructor"
    },
    {
      "payable": true,
      "stateMutability": "payable",
      "type": "fallback"
    },
    {
      "anonymous": false,
      "inputs": [
        {
          "indexed": false,
          "name": "insuree",
          "type": "address"
        },
        {
          "indexed": false,
          "name": "credit",
          "type": "uint256"
        },
        {
          "indexed": false,
          "name": "total",
          "type": "uint256"
        }
      ],
      "name": "InsureeCredited",
      "type": "event"
    },
    {
      "anonymous": false,
      "inputs": [
        {
          "indexed": false,
          "name": "i",
          "type": "uint256"
        },
        {
          "indexed": false,
          "name": "insuree",
          "type": "address"
        },
        {
          "indexed": false,
          "name": "id",
          "type": "bytes32"
        },
        {
          "indexed": false,
          "name": "airline",
          "type": "address"
        },
        {
          "indexed": false,
          "name": "flight",
          "type": "string"
        },
        {
          "indexed": false,
          "name": "ftimestamp",
          "type": "uint256"
        },
        {
          "indexed": false,
          "name": "value",
          "type": "uint256"
        }
      ],
      "name": "debug",
      "type": "event"
    },
    {
      "constant": true,
      "inputs": [],
      "name": "isOperational",
      "outputs": [
        {
          "name": "",
          "type": "bool"
        }
      ],
      "payable": false,
      "stateMutability": "view",
      "type": "function"
    },
    {
      "constant": false,
      "inputs": [
        {
          "name": "mode",
          "type": "bool"
        }
      ],
      "name": "setOperatingStatus",
      "outputs": [],
      "payable": false,
      "stateMutability": "nonpayable",
      "type": "function"
    },
    {
      "constant": false,
      "inputs": [
        {
          "name": "caller",
          "type": "address"
        }
      ],
      "name": "authorizeCaller",
      "outputs": [],
      "payable": false,
      "stateMutability": "nonpayable",
      "type": "function"
    },
    {
      "constant": false,
      "inputs": [
        {
          "name": "caller",
          "type": "address"
        }
      ],
      "name": "deauthorizeCaller",
      "outputs": [],
      "payable": false,
      "stateMutability": "nonpayable",
      "type": "function"
    },
    {
      "constant": false,
      "inputs": [
        {
          "name": "name",
          "type": "string"
        },
        {
          "name": "wallet",
          "type": "address"
        }
      ],
      "name": "registerAirline",
      "outputs": [],
      "payable": false,
      "stateMutability": "nonpayable",
      "type": "function"
    },
    {
      "constant": true,
      "inputs": [],
      "name": "getAirlineCount",
      "outputs": [
        {
          "name": "",
          "type": "uint256"
        }
      ],
      "payable": false,
      "stateMutability": "view",
      "type": "function"
    },
    {
      "constant": true,
      "inputs": [],
      "name": "getFlights",
      "outputs": [
        {
          "name": "",
          "type": "string[]"
        },
        {
          "name": "",
          "type": "address[]"
        },
        {
          "name": "",
          "type": "uint256[]"
        }
      ],
      "payable": false,
      "stateMutability": "view",
      "type": "function"
    },
    {
      "constant": true,
      "inputs": [
        {
          "name": "wallet",
          "type": "address"
        }
      ],
      "name": "isAirlineRegistered",
      "outputs": [
        {
          "name": "",
          "type": "bool"
        }
      ],
      "payable": false,
      "stateMutability": "view",
      "type": "function"
    },
    {
      "constant": true,
      "inputs": [
        {
          "name": "wallet",
          "type": "address"
        }
      ],
      "name": "isAirlineFunded",
      "outputs": [
        {
          "name": "",
          "type": "bool"
        }
      ],
      "payable": false,
      "stateMutability": "view",
      "type": "function"
    },
    {
      "constant": true,
      "inputs": [
        {
          "name": "name",
          "type": "string"
        },
        {
          "name": "timestamp",
          "type": "uint256"
        },
        {
          "name": "airline",
          "type": "address"
        }
      ],
      "name": "isFlightRegistered",
      "outputs": [
        {
          "name": "",
          "type": "bool"
        }
      ],
      "payable": false,
      "stateMutability": "view",
      "type": "function"
    },
    {
      "constant": false,
      "inputs": [
        {
          "name": "name",
          "type": "string"
        },
        {
          "name": "timestamp",
          "type": "uint256"
        },
        {
          "name": "airline",
          "type": "address"
        }
      ],
      "name": "registerFlight",
      "outputs": [],
      "payable": false,
      "stateMutability": "nonpayable",
      "type": "function"
    },
    {
      "constant": false,
      "inputs": [
        {
          "name": "name",
          "type": "string"
        },
        {
          "name": "timestamp",
          "type": "uint256"
        },
        {
          "name": "airline",
          "type": "address"
        },
        {
          "name": "statusCode",
          "type": "uint8"
        }
      ],
      "name": "updateFlight",
      "outputs": [],
      "payable": false,
      "stateMutability": "nonpayable",
      "type": "function"
    },
    {
      "constant": false,
      "inputs": [
        {
          "name": "flight",
          "type": "string"
        },
        {
          "name": "timestamp",
          "type": "uint256"
        },
        {
          "name": "airline",
          "type": "address"
        },
        {
          "name": "insuree",
          "type": "address"
        }
      ],
      "name": "buy",
      "outputs": [],
      "payable": true,
      "stateMutability": "payable",
      "type": "function"
    },
    {
      "constant": false,
      "inputs": [
        {
          "name": "flight",
          "type": "string"
        },
        {
          "name": "timestamp",
          "type": "uint256"
        },
        {
          "name": "airline",
          "type": "address"
        }
      ],
      "name": "creditInsurees",
      "outputs": [],
      "payable": false,
      "stateMutability": "nonpayable",
      "type": "function"
    },
    {
      "constant": true,
      "inputs": [],
      "name": "checkFunds",
      "outputs": [
        {
          "name": "",
          "type": "uint256"
        }
      ],
      "payable": false,
      "stateMutability": "view",
      "type": "function"
    },
    {
      "constant": false,
      "inputs": [
        {
          "name": "insuree",
          "type": "address"
        }
      ],
      "name": "pay",
      "outputs": [],
      "payable": false,
      "stateMutability": "nonpayable",
      "type": "function"
    },
    {
      "constant": false,
      "inputs": [
        {
          "name": "sender",
          "type": "address"
        }
      ],
      "name": "fundForwarded",
      "outputs": [],
      "payable": true,
      "stateMutability": "payable",
      "type": "function"
    }
  ],
  "bytecode": "0x60806040526001600060146101000a81548160ff0219169083151502179055506000600155600060025560006040519080825280602002602001820160405280156200005a5781602001602082028038833980820191505090505b50600490805190602001906200007292919062000111565b506000604051908082528060200260200182016040528015620000a45781602001602082028038833980820191505090505b5060079080519060200190620000bc92919062000163565b50348015620000ca57600080fd5b50336000806101000a81548173ffffffffffffffffffffffffffffffffffffffff021916908373ffffffffffffffffffffffffffffffffffffffff16021790555062000260565b82805482825590600052602060002090810192821562000150579160200282015b828111156200014f57825182559160200191906001019062000132565b5b5090506200015f9190620001f2565b5090565b828054828255906000526020600020908101928215620001df579160200282015b82811115620001de5782518260006101000a81548173ffffffffffffffffffffffffffffffffffffffff021916908373ffffffffffffffffffffffffffffffffffffffff1602179055509160200191906001019062000184565b5b509050620001ee91906200021a565b5090565b6200021791905b8082111562000213576000816000905550600101620001f9565b5090565b90565b6200025d91905b808211156200025957600081816101000a81549073ffffffffffffffffffffffffffffffffffffffff02191690555060010162000221565b5090565b90565b6133a380620002706000396000f3fe6080604052600436106101145760003560e01c806365c152f7116100a057806382a4f7bf1161006457806382a4f7bf1461042c57806394c260ee14610469578063cc936fe114610496578063cd905dff146104c1578063f53b6d65146104ec57610114565b806365c152f7146103685780636873c21d1461039157806373402358146103ba5780637ef9857a146103e55780637f9e18081461040157610114565b8063110466ed116100e7578063110466ed146102a857806312168f15146102d15780632c388d5d146102fa5780632d5052e9146103235780634266ed6a1461033f57610114565b8063010c5c97146101ee57806308d233dc1461022b5780630c11dedd146102565780630e2c41291461027f575b60003411610157576040517f08c379a000000000000000000000000000000000000000000000000000000000815260040161014e90612e0c565b60405180910390fd5b6101a934600960003373ffffffffffffffffffffffffffffffffffffffff1673ffffffffffffffffffffffffffffffffffffffff1681526020019081526020016000205461052990919063ffffffff16565b600960003373ffffffffffffffffffffffffffffffffffffffff1673ffffffffffffffffffffffffffffffffffffffff16815260200190815260200160002081905550005b3480156101fa57600080fd5b5061021560048036036102109190810190612377565b61057e565b6040516102229190612db1565b60405180910390f35b34801561023757600080fd5b506102406105d7565b60405161024d9190612f8c565b60405180910390f35b34801561026257600080fd5b5061027d600480360361027891908101906123a0565b61061e565b005b34801561028b57600080fd5b506102a660048036036102a191908101906123f2565b610774565b005b3480156102b457600080fd5b506102cf60048036036102ca91908101906123c9565b6109e4565b005b3480156102dd57600080fd5b506102f860048036036102f39190810190612536565b610a90565b005b34801561030657600080fd5b50610321600480360361031c9190810190612377565b610bee565b005b61033d60048036036103389190810190612377565b610d47565b005b34801561034b57600080fd5b506103666004803603610361919081019061244a565b610ea4565b005b34801561037457600080fd5b5061038f600480360361038a919081019061244a565b611389565b005b34801561039d57600080fd5b506103b860048036036103b39190810190612377565b61166b565b005b3480156103c657600080fd5b506103cf6117c4565b6040516103dc9190612f8c565b60405180910390f35b6103ff60048036036103fa91908101906124b6565b6117d0565b005b34801561040d57600080fd5b50610416611cb3565b6040516104239190612f8c565b60405180910390f35b34801561043857600080fd5b50610453600480360361044e91908101906125b6565b611cbd565b6040516104609190612db1565b60405180910390f35b34801561047557600080fd5b5061047e611cfb565b60405161048d93929190612d65565b60405180910390f35b3480156104a257600080fd5b506104ab611f66565b6040516104b89190612f8c565b60405180910390f35b3480156104cd57600080fd5b506104d6611f72565b6040516104e39190612db1565b60405180910390f35b3480156104f857600080fd5b50610513600480360361050e9190810190612377565b611f88565b6040516105209190612db1565b60405180910390f35b600080828401905083811015610574576040517f08c379a000000000000000000000000000000000000000000000000000000000815260040161056b90612dec565b60405180910390fd5b8091505092915050565b6000600560008373ffffffffffffffffffffffffffffffffffffffff1673ffffffffffffffffffffffffffffffffffffffff16815260200190815260200160002060000160009054906101000a900460ff169050919050565b6000600860003373ffffffffffffffffffffffffffffffffffffffff1673ffffffffffffffffffffffffffffffffffffffff16815260200190815260200160002054905090565b6001600a60003373ffffffffffffffffffffffffffffffffffffffff1673ffffffffffffffffffffffffffffffffffffffff16815260200190815260200160002054146106a0576040517f08c379a000000000000000000000000000000000000000000000000000000000815260040161069790612f0c565b60405180910390fd5b6000600860008373ffffffffffffffffffffffffffffffffffffffff1673ffffffffffffffffffffffffffffffffffffffff1681526020019081526020016000205490506000600860008473ffffffffffffffffffffffffffffffffffffffff1673ffffffffffffffffffffffffffffffffffffffff168152602001908152602001600020819055508173ffffffffffffffffffffffffffffffffffffffff166108fc829081150290604051600060405180830381858888f1935050505015801561076f573d6000803e3d6000fd5b505050565b6001600a60003373ffffffffffffffffffffffffffffffffffffffff1673ffffffffffffffffffffffffffffffffffffffff16815260200190815260200160002054146107f6576040517f08c379a00000000000000000000000000000000000000000000000000000000081526004016107ed90612f0c565b60405180910390fd5b600560008273ffffffffffffffffffffffffffffffffffffffff1673ffffffffffffffffffffffffffffffffffffffff16815260200190815260200160002060000160009054906101000a900460ff1615610886576040517f08c379a000000000000000000000000000000000000000000000000000000000815260040161087d90612e8c565b60405180910390fd5b604051806060016040528060011515815260200184848080601f016020809104026020016040519081016040528093929190818152602001838380828437600081840152601f19601f8201169050808301925050505050505081526020018273ffffffffffffffffffffffffffffffffffffffff16815250600560008373ffffffffffffffffffffffffffffffffffffffff1673ffffffffffffffffffffffffffffffffffffffff16815260200190815260200160002060008201518160000160006101000a81548160ff02191690831515021790555060208201518160010190805190602001906109799291906120c4565b5060408201518160020160006101000a81548173ffffffffffffffffffffffffffffffffffffffff021916908373ffffffffffffffffffffffffffffffffffffffff1602179055509050506109d96001805461052990919063ffffffff16565b600181905550505050565b6000809054906101000a900473ffffffffffffffffffffffffffffffffffffffff1673ffffffffffffffffffffffffffffffffffffffff163373ffffffffffffffffffffffffffffffffffffffff1614610a73576040517f08c379a0000000000000000000000000000000000000000000000000000000008152600401610a6a90612f4c565b60405180910390fd5b80600060146101000a81548160ff02191690831515021790555050565b6001600a60003373ffffffffffffffffffffffffffffffffffffffff1673ffffffffffffffffffffffffffffffffffffffff1681526020019081526020016000205414610b12576040517f08c379a0000000000000000000000000000000000000000000000000000000008152600401610b0990612f0c565b60405180910390fd5b6000610b638387878080601f016020809104026020016040519081016040528093929190818152602001838380828437600081840152601f19601f8201169050808301925050505050505086611fdc565b90506003600082815260200190815260200160002060010160009054906101000a900460ff16610bc8576040517f08c379a0000000000000000000000000000000000000000000000000000000008152600401610bbf90612eac565b60405180910390fd5b8160ff166003600083815260200190815260200160002060020181905550505050505050565b6000809054906101000a900473ffffffffffffffffffffffffffffffffffffffff1673ffffffffffffffffffffffffffffffffffffffff163373ffffffffffffffffffffffffffffffffffffffff1614610c7d576040517f08c379a0000000000000000000000000000000000000000000000000000000008152600401610c7490612f4c565b60405180910390fd5b6000600a60008373ffffffffffffffffffffffffffffffffffffffff1673ffffffffffffffffffffffffffffffffffffffff1681526020019081526020016000205414610cff576040517f08c379a0000000000000000000000000000000000000000000000000000000008152600401610cf690612f2c565b60405180910390fd5b6001600a60008373ffffffffffffffffffffffffffffffffffffffff1673ffffffffffffffffffffffffffffffffffffffff1681526020019081526020016000208190555050565b6001600a60003373ffffffffffffffffffffffffffffffffffffffff1673ffffffffffffffffffffffffffffffffffffffff1681526020019081526020016000205414610dc9576040517f08c379a0000000000000000000000000000000000000000000000000000000008152600401610dc090612f0c565b60405180910390fd5b60003411610e0c576040517f08c379a0000000000000000000000000000000000000000000000000000000008152600401610e0390612e0c565b60405180910390fd5b610e5e34600960008473ffffffffffffffffffffffffffffffffffffffff1673ffffffffffffffffffffffffffffffffffffffff1681526020019081526020016000205461052990919063ffffffff16565b600960008373ffffffffffffffffffffffffffffffffffffffff1673ffffffffffffffffffffffffffffffffffffffff1681526020019081526020016000208190555050565b6000610ef58286868080601f016020809104026020016040519081016040528093929190818152602001838380828437600081840152601f19601f8201169050808301925050505050505085611fdc565b905060008090505b6007805490508110156113815760006006600083815260200190815260200160002060050160009054906101000a900473ffffffffffffffffffffffffffffffffffffffff16905060006110556006600085815260200190815260200160002060000160010160019054906101000a900473ffffffffffffffffffffffffffffffffffffffff16600660008681526020019081526020016000206000016000018054600181600116156101000203166002900480601f0160208091040260200160405190810160405280929190818152602001828054600181600116156101000203166002900480156110315780601f1061100657610100808354040283529160200191611031565b820191906000526020600020905b81548152906001019060200180831161101457829003601f168201915b50505050506006600087815260200190815260200160002060000160030154611fdc565b90507f4fb363c2ce8b0a3816b5d4f90d7d960963aa82b61609aaca13516b9ab44d5eb6836006600086815260200190815260200160002060050160009054906101000a900473ffffffffffffffffffffffffffffffffffffffff1686888c8c8c60006040516110cb989796959493929190612fa7565b60405180910390a17f4fb363c2ce8b0a3816b5d4f90d7d960963aa82b61609aaca13516b9ab44d5eb6836006600086815260200190815260200160002060050160009054906101000a900473ffffffffffffffffffffffffffffffffffffffff16836006600088815260200190815260200160002060000160010160019054906101000a900473ffffffffffffffffffffffffffffffffffffffff1660066000898152602001908152602001600020600001600001600660008a815260200190815260200160002060000160030154600660008b8152602001908152602001600020600401546040516111c4979695949392919061301f565b60405180910390a16000600660008581526020019081526020016000206004015414156111f2575050611376565b8084141561137357600060066000858152602001908152602001600020600401549050600061122b60028361201290919063ffffffff16565b905060006006600087815260200190815260200160002060040181905550600061125e828461052990919063ffffffff16565b90506112b281600860008873ffffffffffffffffffffffffffffffffffffffff1673ffffffffffffffffffffffffffffffffffffffff1681526020019081526020016000205461052990919063ffffffff16565b600860008773ffffffffffffffffffffffffffffffffffffffff1673ffffffffffffffffffffffffffffffffffffffff168152602001908152602001600020819055507f3eed7b857edadc1405e4ab4dc8177afc8eb53be4bc241e7f42570eff8f1912ab8582600860008973ffffffffffffffffffffffffffffffffffffffff1673ffffffffffffffffffffffffffffffffffffffff1681526020019081526020016000205460405161136793929190612d2e565b60405180910390a15050505b50505b806001019050610efd565b505050505050565b6001600a60003373ffffffffffffffffffffffffffffffffffffffff1673ffffffffffffffffffffffffffffffffffffffff168152602001908152602001600020541461140b576040517f08c379a000000000000000000000000000000000000000000000000000000000815260040161140290612f0c565b60405180910390fd5b600061145c85858080601f016020809104026020016040519081016040528093929190818152602001838380828437600081840152601f19601f820116905080830192505050505050508484611cbd565b9050801561149f576040517f08c379a000000000000000000000000000000000000000000000000000000000815260040161149690612ecc565b60405180910390fd5b60006114f08387878080601f016020809104026020016040519081016040528093929190818152602001838380828437600081840152601f19601f8201169050808301925050505050505086611fdc565b90506003600082815260200190815260200160002060010160009054906101000a900460ff1615611556576040517f08c379a000000000000000000000000000000000000000000000000000000000815260040161154d90612e4c565b60405180910390fd5b858560036000848152602001908152602001600020600001919061157b929190612144565b5060016003600083815260200190815260200160002060010160006101000a81548160ff021916908315150217905550826003600083815260200190815260200160002060010160016101000a81548173ffffffffffffffffffffffffffffffffffffffff021916908373ffffffffffffffffffffffffffffffffffffffff160217905550600060036000838152602001908152602001600020600201819055508360036000838152602001908152602001600020600301819055506004819080600181540180825580915050906001820390600052602060002001600090919290919091505550505050505050565b6000809054906101000a900473ffffffffffffffffffffffffffffffffffffffff1673ffffffffffffffffffffffffffffffffffffffff163373ffffffffffffffffffffffffffffffffffffffff16146116fa576040517f08c379a00000000000000000000000000000000000000000000000000000000081526004016116f190612f4c565b60405180910390fd5b6001600a60008373ffffffffffffffffffffffffffffffffffffffff1673ffffffffffffffffffffffffffffffffffffffff168152602001908152602001600020541461177c576040517f08c379a000000000000000000000000000000000000000000000000000000000815260040161177390612dcc565b60405180910390fd5b6000600a60008373ffffffffffffffffffffffffffffffffffffffff1673ffffffffffffffffffffffffffffffffffffffff1681526020019081526020016000208190555050565b678ac7230489e8000081565b6001600a60003373ffffffffffffffffffffffffffffffffffffffff1673ffffffffffffffffffffffffffffffffffffffff1681526020019081526020016000205414611852576040517f08c379a000000000000000000000000000000000000000000000000000000000815260040161184990612f0c565b60405180910390fd5b6000341015611896576040517f08c379a000000000000000000000000000000000000000000000000000000000815260040161188d90612f6c565b60405180910390fd5b8060006118e88488888080601f016020809104026020016040519081016040528093929190818152602001838380828437600081840152601f19601f8201169050808301925050505050505087611fdc565b90506003600082815260200190815260200160002060010160009054906101000a900460ff1661194d576040517f08c379a000000000000000000000000000000000000000000000000000000000815260040161194490612eec565b60405180910390fd5b6000809050670de0b6b3a7640000341061197157670de0b6b3a76400009050611975565b3490505b60036000838152602001908152602001600020600660006002548152602001908152602001600020600001600082018160000190805460018160011615610100020316600290046119c79291906121c4565b506001820160009054906101000a900460ff168160010160006101000a81548160ff0219169083151502179055506001820160019054906101000a900473ffffffffffffffffffffffffffffffffffffffff168160010160016101000a81548173ffffffffffffffffffffffffffffffffffffffff021916908373ffffffffffffffffffffffffffffffffffffffff16021790555060028201548160020155600382015481600301559050508360066000600254815260200190815260200160002060050160006101000a81548173ffffffffffffffffffffffffffffffffffffffff021916908373ffffffffffffffffffffffffffffffffffffffff1602179055508060066000600254815260200190815260200160002060040181905550611afd600160025461052990919063ffffffff16565b60028190555060078490806001815401808255809150509060018203906000526020600020016000909192909190916101000a81548173ffffffffffffffffffffffffffffffffffffffff021916908373ffffffffffffffffffffffffffffffffffffffff160217905550505050670de0b6b3a7640000341115611cab576000611b98670de0b6b3a76400003461206e90919063ffffffff16565b9050611bec81600860008573ffffffffffffffffffffffffffffffffffffffff1673ffffffffffffffffffffffffffffffffffffffff1681526020019081526020016000205461052990919063ffffffff16565b600860008473ffffffffffffffffffffffffffffffffffffffff1673ffffffffffffffffffffffffffffffffffffffff168152602001908152602001600020819055507f3eed7b857edadc1405e4ab4dc8177afc8eb53be4bc241e7f42570eff8f1912ab8282600860008673ffffffffffffffffffffffffffffffffffffffff1673ffffffffffffffffffffffffffffffffffffffff16815260200190815260200160002054604051611ca193929190612d2e565b60405180910390a1505b505050505050565b6000600154905090565b600080611ccb838686611fdc565b90506003600082815260200190815260200160002060010160009054906101000a900460ff169150509392505050565b606080606060006004805490509050606081604051908082528060200260200182016040528015611d4057816020015b6060815260200190600190039081611d2b5790505b509050606082604051908082528060200260200182016040528015611d745781602001602082028038833980820191505090505b509050606083604051908082528060200260200182016040528015611da85781602001602082028038833980820191505090505b50905060008090505b84811015611f5357600060048281548110611dc857fe5b90600052602060002001549050600360008281526020019081526020016000206000018054600181600116156101000203166002900480601f016020809104026020016040519081016040528092919081815260200182805460018160011615610100020316600290048015611e7f5780601f10611e5457610100808354040283529160200191611e7f565b820191906000526020600020905b815481529060010190602001808311611e6257829003601f168201915b5050505050858381518110611e9057fe5b60200260200101819052506003600082815260200190815260200160002060010160019054906101000a900473ffffffffffffffffffffffffffffffffffffffff16848381518110611ede57fe5b602002602001019073ffffffffffffffffffffffffffffffffffffffff16908173ffffffffffffffffffffffffffffffffffffffff16815250506003600082815260200190815260200160002060030154838381518110611f3b57fe5b60200260200101818152505050806001019050611db1565b5082828296509650965050505050909192565b670de0b6b3a764000081565b60008060149054906101000a900460ff16905090565b6000678ac7230489e80000600960008473ffffffffffffffffffffffffffffffffffffffff1673ffffffffffffffffffffffffffffffffffffffff1681526020019081526020016000205410159050919050565b6000838383604051602001611ff393929190612cf5565b6040516020818303038152906040528051906020012090509392505050565b6000808211612056576040517f08c379a000000000000000000000000000000000000000000000000000000000815260040161204d90612e6c565b60405180910390fd5b600082848161206157fe5b0490508091505092915050565b6000828211156120b3576040517f08c379a00000000000000000000000000000000000000000000000000000000081526004016120aa90612e2c565b60405180910390fd5b600082840390508091505092915050565b828054600181600116156101000203166002900490600052602060002090601f016020900481019282601f1061210557805160ff1916838001178555612133565b82800160010185558215612133579182015b82811115612132578251825591602001919060010190612117565b5b509050612140919061224b565b5090565b828054600181600116156101000203166002900490600052602060002090601f016020900481019282601f1061218557803560ff19168380011785556121b3565b828001600101855582156121b3579182015b828111156121b2578235825591602001919060010190612197565b5b5090506121c0919061224b565b5090565b828054600181600116156101000203166002900490600052602060002090601f016020900481019282601f106121fd578054855561223a565b8280016001018555821561223a57600052602060002091601f016020900482015b8281111561223957825482559160010191906001019061221e565b5b509050612247919061224b565b5090565b61226d91905b80821115612269576000816000905550600101612251565b5090565b90565b60008135905061227f816132f6565b92915050565b6000813590506122948161330d565b92915050565b6000813590506122a981613324565b92915050565b60008083601f8401126122c157600080fd5b8235905067ffffffffffffffff8111156122da57600080fd5b6020830191508360018202830111156122f257600080fd5b9250929050565b600082601f83011261230a57600080fd5b813561231d612318826130c2565b613095565b9150808252602083016020830185838301111561233957600080fd5b612344838284613268565b50505092915050565b60008135905061235c8161333b565b92915050565b60008135905061237181613352565b92915050565b60006020828403121561238957600080fd5b600061239784828501612270565b91505092915050565b6000602082840312156123b257600080fd5b60006123c084828501612285565b91505092915050565b6000602082840312156123db57600080fd5b60006123e98482850161229a565b91505092915050565b60008060006040848603121561240757600080fd5b600084013567ffffffffffffffff81111561242157600080fd5b61242d868287016122af565b9350935050602061244086828701612270565b9150509250925092565b6000806000806060858703121561246057600080fd5b600085013567ffffffffffffffff81111561247a57600080fd5b612486878288016122af565b945094505060206124998782880161234d565b92505060406124aa87828801612270565b91505092959194509250565b6000806000806000608086880312156124ce57600080fd5b600086013567ffffffffffffffff8111156124e857600080fd5b6124f4888289016122af565b955095505060206125078882890161234d565b935050604061251888828901612270565b925050606061252988828901612270565b9150509295509295909350565b60008060008060006080868803121561254e57600080fd5b600086013567ffffffffffffffff81111561256857600080fd5b612574888289016122af565b955095505060206125878882890161234d565b935050604061259888828901612270565b92505060606125a988828901612362565b9150509295509295909350565b6000806000606084860312156125cb57600080fd5b600084013567ffffffffffffffff8111156125e557600080fd5b6125f1868287016122f9565b93505060206126028682870161234d565b925050604061261386828701612270565b9150509250925092565b60006126298383612661565b60208301905092915050565b60006126418383612852565b905092915050565b60006126558383612cc0565b60208301905092915050565b61266a816131e5565b82525050565b612679816131e5565b82525050565b61269061268b826131e5565b6132aa565b82525050565b60006126a182613127565b6126ab8185613185565b93506126b6836130ee565b8060005b838110156126e75781516126ce888261261d565b97506126d98361315e565b9250506001810190506126ba565b5085935050505092915050565b60006126ff82613132565b6127098185613196565b93508360208202850161271b856130fb565b8060005b8581101561275757848403895281516127388582612635565b94506127438361316b565b925060208a0199505060018101905061271f565b50829750879550505050505092915050565b60006127748261313d565b61277e81856131a7565b935061278983613108565b8060005b838110156127ba5781516127a18882612649565b97506127ac83613178565b92505060018101905061278d565b5085935050505092915050565b6127d081613209565b82525050565b6127df81613215565b82525050565b6127ee81613256565b82525050565b600061280083856131c9565b935061280d838584613268565b612816836132d8565b840190509392505050565b600061282c82613153565b61283681856131da565b9350612846818560208601613277565b80840191505092915050565b600061285d82613148565b61286781856131b8565b9350612877818560208601613277565b612880816132d8565b840191505092915050565b6000815460018116600081146128a857600181146128ce57612912565b607f60028304166128b981876131c9565b955060ff198316865260208601935050612912565b600282046128dc81876131c9565b95506128e785613115565b60005b82811015612909578154818901526001820191506020810190506128ea565b80880195505050505b505092915050565b6000612927601a836131c9565b91507f4164647265737320776173206e6f7420617574686f72697a65640000000000006000830152602082019050919050565b6000612967601b836131c9565b91507f536166654d6174683a206164646974696f6e206f766572666c6f7700000000006000830152602082019050919050565b60006129a76018836131c9565b91507f4e6f2066756e647320617265206e6f7420616c6c6f77656400000000000000006000830152602082019050919050565b60006129e7601e836131c9565b91507f536166654d6174683a207375627472616374696f6e206f766572666c6f7700006000830152602082019050919050565b6000612a27601d836131c9565b91507f466c6967687420697320616c726561647920726567697374657265642e0000006000830152602082019050919050565b6000612a67601a836131c9565b91507f536166654d6174683a206469766973696f6e206279207a65726f0000000000006000830152602082019050919050565b6000612aa7601e836131c9565b91507f4169726c696e6520697320616c726561647920726567697374657265642e00006000830152602082019050919050565b6000612ae76019836131c9565b91507f466c69676874206973206e6f7420726567697374657265642e000000000000006000830152602082019050919050565b6000612b27601c836131c9565b91507f466c6967687420697320616c72656164792072656769737465726564000000006000830152602082019050919050565b6000612b676015836131c9565b91507f466c6967687420646f6573206e6f7420657869737400000000000000000000006000830152602082019050919050565b6000612ba76018836131c9565b91507f43616c6c6572206973206e6f7420617574686f72697a656400000000000000006000830152602082019050919050565b6000612be7601a836131c9565b91507f4164647265737320616c726561647920617574686f72697a65640000000000006000830152602082019050919050565b6000612c27601c836131c9565b91507f43616c6c6572206973206e6f7420636f6e7472616374206f776e6572000000006000830152602082019050919050565b6000612c676022836131c9565b91507f4e6f7468696e6720776173207061696420666f722074686520696e737572616e60008301527f63650000000000000000000000000000000000000000000000000000000000006020830152604082019050919050565b612cc98161323f565b82525050565b612cd88161323f565b82525050565b612cef612cea8261323f565b6132ce565b82525050565b6000612d01828661267f565b601482019150612d118285612821565b9150612d1d8284612cde565b602082019150819050949350505050565b6000606082019050612d436000830186612670565b612d506020830185612ccf565b612d5d6040830184612ccf565b949350505050565b60006060820190508181036000830152612d7f81866126f4565b90508181036020830152612d938185612696565b90508181036040830152612da78184612769565b9050949350505050565b6000602082019050612dc660008301846127c7565b92915050565b60006020820190508181036000830152612de58161291a565b9050919050565b60006020820190508181036000830152612e058161295a565b9050919050565b60006020820190508181036000830152612e258161299a565b9050919050565b60006020820190508181036000830152612e45816129da565b9050919050565b60006020820190508181036000830152612e6581612a1a565b9050919050565b60006020820190508181036000830152612e8581612a5a565b9050919050565b60006020820190508181036000830152612ea581612a9a565b9050919050565b60006020820190508181036000830152612ec581612ada565b9050919050565b60006020820190508181036000830152612ee581612b1a565b9050919050565b60006020820190508181036000830152612f0581612b5a565b9050919050565b60006020820190508181036000830152612f2581612b9a565b9050919050565b60006020820190508181036000830152612f4581612bda565b9050919050565b60006020820190508181036000830152612f6581612c1a565b9050919050565b60006020820190508181036000830152612f8581612c5a565b9050919050565b6000602082019050612fa16000830184612ccf565b92915050565b600060e082019050612fbc600083018b612ccf565b612fc9602083018a612670565b612fd660408301896127d6565b612fe36060830188612670565b8181036080830152612ff68186886127f4565b905061300560a0830185612ccf565b61301260c08301846127e5565b9998505050505050505050565b600060e082019050613034600083018a612ccf565b6130416020830189612670565b61304e60408301886127d6565b61305b6060830187612670565b818103608083015261306d818661288b565b905061307c60a0830185612ccf565b61308960c0830184612ccf565b98975050505050505050565b6000604051905081810181811067ffffffffffffffff821117156130b857600080fd5b8060405250919050565b600067ffffffffffffffff8211156130d957600080fd5b601f19601f8301169050602081019050919050565b6000602082019050919050565b6000602082019050919050565b6000602082019050919050565b60008160005260206000209050919050565b600081519050919050565b600081519050919050565b600081519050919050565b600081519050919050565b600081519050919050565b6000602082019050919050565b6000602082019050919050565b6000602082019050919050565b600082825260208201905092915050565b600082825260208201905092915050565b600082825260208201905092915050565b600082825260208201905092915050565b600082825260208201905092915050565b600081905092915050565b60006131f08261321f565b9050919050565b60006132028261321f565b9050919050565b60008115159050919050565b6000819050919050565b600073ffffffffffffffffffffffffffffffffffffffff82169050919050565b6000819050919050565b600060ff82169050919050565b60006132618261323f565b9050919050565b82818337600083830152505050565b60005b8381101561329557808201518184015260208101905061327a565b838111156132a4576000848401525b50505050565b60006132b5826132bc565b9050919050565b60006132c7826132e9565b9050919050565b6000819050919050565b6000601f19601f8301169050919050565b60008160601b9050919050565b6132ff816131e5565b811461330a57600080fd5b50565b613316816131f7565b811461332157600080fd5b50565b61332d81613209565b811461333857600080fd5b50565b6133448161323f565b811461334f57600080fd5b50565b61335b81613249565b811461336657600080fd5b5056fea265627a7a72305820342477bc263745998b9ffcd7637b33d8c07b799a077ea44ae80b109ee9a8b27f6c6578706572696d656e74616cf50037",
  "source": "pragma solidity ^0.5.8;\npragma experimental ABIEncoderV2;\n\nimport \"../node_modules/openzeppelin-solidity/contracts/math/SafeMath.sol\";\n\ncontract FlightSuretyData {\n    using SafeMath for uint256;\n\n    /********************************************************************************************/\n    /*                                       DATA VARIABLES                                     */\n    /********************************************************************************************/\n\n    address private contractOwner;\n    bool private operational = true;\n\n    struct Airline {\n        bool isRegistered;\n        string name;\n        address wallet;\n    }\n\n    struct Insurance {\n        Flight flight;\n        uint256 value;\n        address customer;\n    }\n\n    struct Flight {\n        string name;\n        bool isRegistered;\n        address airline;\n        uint statusCode;\n        uint256 timestamp;\n    }\n\n    uint private airlineCount = 0;                              // Count how many airlines are registerd\n    uint private next_insurance = 0;                            // Count how many insurances are purchased\n\n    mapping(bytes32 => Flight) private flights;                 // Mapping for storing flights\n    bytes32[] private flight_keys = new bytes32[](0);           // To track all the flights registered\n    mapping(address => Airline) private airlines;               // Mapping for storing airlines\n    mapping(uint => Insurance) private insurances;              // Mapping for storing insurances\n    address[] private insurees = new address[](0);              // To track all the passenger addresses that have purchased the insurance\n    mapping(address => uint256) private payouts;                // Mapping for storing insurance refund payouts\n    mapping(address => uint256) private funds;                  // Mapping for storing funds\n    mapping(address => uint256) private authorizedContracts;    //Mapping for storing authorizedContracts\n\n    uint256 public constant MAX_INSURANCE_POLICY = 1 ether;     //maximum value of purchasing flight insurance\n    uint256 public constant AIRLINE_MIN_FUNDS = 10 ether;       //minimum value of participating in contract\n\n    /********************************************************************************************/\n    /*                                       EVENT DEFINITIONS                                  */\n    /********************************************************************************************/\n    event InsureeCredited(address insuree, uint credit, uint total);\n\n\n    /**\n    * @dev Constructor\n    *      The deploying account becomes contractOwner\n    */\n    constructor\n    (\n    )\n    public\n    {\n        contractOwner = msg.sender;\n    }\n\n    /********************************************************************************************/\n    /*                                       FUNCTION MODIFIERS                                 */\n    /********************************************************************************************/\n\n    // Modifiers help avoid duplication of code. They are typically used to validate something\n    // before a function is allowed to be executed.\n\n    /**\n    * @dev Modifier that requires the \"operational\" boolean variable to be \"true\"\n    *      This is used on all state changing functions to pause the contract in \n    *      the event there is an issue that needs to be fixed\n    */\n    modifier requireIsOperational()\n    {\n        require(operational, \"Contract is currently not operational\");\n        _;\n        // All modifiers require an \"_\" which indicates where the function body will be added\n    }\n\n    /**\n    * @dev Modifier that requires the \"ContractOwner\" account to be the function caller\n    */\n    modifier requireContractOwner()\n    {\n        require(msg.sender == contractOwner, \"Caller is not contract owner\");\n        _;\n    }\n\n    modifier isCallerAuthorized() {\n        require(authorizedContracts[msg.sender] == 1, \"Caller is not authorized\");\n        _;\n    }\n\n    // Define a modifier that checks if the paid amount is sufficient to cover the price\n    modifier paidInRange() {\n        require(msg.value >= 0, \"Nothing was paid for the insurance\");\n        _;\n    }\n\n    // Define a modifier that checks the price and refunds the remaining balance\n    modifier checkAndRefund(address insuree) {\n        _;\n        if (msg.value > MAX_INSURANCE_POLICY) {\n            uint amountToReturn = msg.value.sub(MAX_INSURANCE_POLICY);\n            payouts[insuree] = payouts[insuree].add(amountToReturn);\n            emit InsureeCredited(insuree, amountToReturn, payouts[insuree]);\n        }\n    }\n\n    /********************************************************************************************/\n    /*                                       UTILITY FUNCTIONS                                  */\n    /********************************************************************************************/\n\n    /**\n    * @dev Get operating status of contract\n    *\n    * @return A bool that is the current operating status\n    */\n    function isOperational()\n    public\n    view\n    returns (bool)\n    {\n        return operational;\n    }\n\n\n    /**\n    * @dev Sets contract operations on/off\n    *\n    * When operational mode is disabled, all write transactions except for this one will fail\n    */\n    function setOperatingStatus\n    (\n        bool mode\n    )\n    external\n    requireContractOwner\n    {\n        operational = mode;\n    }\n\n    function authorizeCaller(address caller) public requireContractOwner {\n        require(authorizedContracts[caller] == 0, \"Address already authorized\");\n        authorizedContracts[caller] = 1;\n    }\n\n    function deauthorizeCaller(address caller) public requireContractOwner {\n        require(authorizedContracts[caller] == 1, \"Address was not authorized\");\n        authorizedContracts[caller] = 0;\n    }\n\n    /********************************************************************************************/\n    /*                                     SMART CONTRACT FUNCTIONS                             */\n    /********************************************************************************************/\n\n    /**\n     * @dev Add an airline to the registration queue\n     *      Can only be called from FlightSuretyApp contract\n     *\n     */\n    function registerAirline\n    (\n        string calldata name,\n        address wallet\n    )\n    external\n    isCallerAuthorized\n    {\n        require(!airlines[wallet].isRegistered, \"Airline is already registered.\");\n        airlines[wallet] = Airline({name : name, isRegistered : true, wallet : wallet});\n        airlineCount = airlineCount.add(1);\n    }\n\n    function getAirlineCount() public view returns (uint256) {\n        return airlineCount;\n    }\n\n    function getFlights() external view returns (string[] memory, address[] memory, uint256[] memory) {\n        uint l = flight_keys.length;\n        string[] memory names = new string[](l);\n        address[] memory airline_addr = new address[](l);\n        uint256[] memory timestamps = new uint256[](l);\n\n        for (uint i = 0; i < l; ++i) {\n            bytes32 key = flight_keys[i];\n            names[i] = flights[key].name;\n            airline_addr[i] = flights[key].airline;\n            timestamps[i] = flights[key].timestamp;\n        }\n\n        return (names, airline_addr, timestamps);\n    }\n\n    function isAirlineRegistered(address wallet) external view returns (bool) {\n        return airlines[wallet].isRegistered;\n    }\n\n    function isAirlineFunded(address wallet) external view returns (bool) {\n        return funds[wallet] >= AIRLINE_MIN_FUNDS;\n    }\n\n    function isFlightRegistered(string memory name, uint256 timestamp, address airline) public view returns (bool) {\n        bytes32 id = getFlightKey(airline, name, timestamp);\n        return flights[id].isRegistered;\n    }\n\n    function registerFlight(string calldata name, uint256 timestamp, address airline) external isCallerAuthorized {\n        bool registered = isFlightRegistered(name, timestamp, airline);\n        require(!registered, \"Flight is already registered\");\n        bytes32 id = getFlightKey(airline, name, timestamp);\n        require(!flights[id].isRegistered, \"Flight is already registered.\");\n        flights[id].name = name;\n        flights[id].isRegistered = true;\n        flights[id].airline = airline;\n        flights[id].statusCode = 0;\n        flights[id].timestamp = timestamp;\n        flight_keys.push(id);\n    }\n\n    function updateFlight(string calldata name, uint256 timestamp, address airline, uint8 statusCode)\n    external isCallerAuthorized {\n        bytes32 id = getFlightKey(airline, name, timestamp);\n        require(flights[id].isRegistered, \"Flight is not registered.\");\n        flights[id].statusCode = statusCode;\n    }\n\n\n\n\n    /**\n     * @dev Buy insurance for a flight\n     *\n     */\n    function buy\n    (\n        string calldata flight,\n        uint256 timestamp,\n        address airline,\n        address insuree\n    )\n    external\n    payable\n    isCallerAuthorized\n    paidInRange\n    checkAndRefund(insuree)\n    {\n        bytes32 id = getFlightKey(airline, flight, timestamp);\n        require(flights[id].isRegistered, \"Flight does not exist\");\n\n        uint insurance_value = 0;\n\n        if (msg.value >= MAX_INSURANCE_POLICY) {\n            insurance_value = MAX_INSURANCE_POLICY;\n        } else {\n            insurance_value = msg.value;\n        }\n\n        insurances[next_insurance].flight = flights[id];\n        insurances[next_insurance].customer = insuree;\n        insurances[next_insurance].value = insurance_value;\n        next_insurance = next_insurance.add(1);\n        insurees.push(insuree);\n    }\n\n\n    event debug(uint i, address insuree, bytes32 id, address airline, string flight, uint256 ftimestamp, uint256 value);\n\n\n    /**\n     *  @dev Credits payouts to insurees\n    */\n    function creditInsurees(string calldata flight, uint256 timestamp, address airline)\n    external\n    {\n        bytes32 id = getFlightKey(airline, flight, timestamp);\n        for (uint i = 0; i < insurees.length; ++i) {\n            address insuree = insurances[i].customer;\n            bytes32 id2 = getFlightKey(insurances[i].flight.airline, insurances[i].flight.name, insurances[i].flight.timestamp);\n            emit debug(i, insurances[i].customer, id, airline, flight, timestamp, 0);\n            emit debug(i, insurances[i].customer, id2, insurances[i].flight.airline, insurances[i].flight.name, insurances[i].flight.timestamp, insurances[i].value);\n            if(insurances[i].value == 0) continue;\n            if (id == id2) {\n                uint256 value = insurances[i].value;\n                uint256 half = value.div(2);\n                insurances[i].value = 0;\n                uint256 refund = value.add(half);\n                payouts[insuree] = payouts[insuree].add(refund);\n                emit InsureeCredited(insuree, refund, payouts[insuree]);\n            }\n        }\n    }\n\n    function checkFunds() external view returns (uint){\n        return payouts[msg.sender];\n    }\n\n    /**\n     *  @dev Transfers eligible payout funds to insuree\n     *\n    */\n    function pay\n    (\n        address payable insuree\n    )\n    external\n    isCallerAuthorized\n    {\n        uint refund = payouts[insuree];\n        payouts[insuree] = 0;\n        insuree.transfer(refund);\n    }\n\n    /**\n     * @dev Initial funding for the insurance. Unless there are too many delayed flights\n     *      resulting in insurance payouts, the contract should be self-sustaining\n     *\n     */\n    function fundForwarded\n    (\n        address sender\n    )\n    external\n    payable\n    isCallerAuthorized\n    {\n        require(msg.value > 0, \"No funds are not allowed\");\n        funds[sender] = funds[sender].add(msg.value);\n    }\n\n\n    function getFlightKey\n    (\n        address airline,\n        string memory flight,\n        uint256 timestamp\n    )\n    pure\n    internal\n    returns (bytes32)\n    {\n        return keccak256(abi.encodePacked(airline, flight, timestamp));\n    }\n\n    /**\n    * @dev Fallback function for funding smart contract.\n    *\n    */\n    function()\n    external\n    payable\n    {\n        require(msg.value > 0, \"No funds are not allowed\");\n        funds[msg.sender] = funds[msg.sender].add(msg.value);\n    }\n}\n\n",
  "sourcePath": "/Users/rinatakahashi/Desktop/Development/Udacity/5.Daap_with_autonomous_SmartContract/FlightSurety/contracts/FlightSuretyData.sol",
  "compiler": {
    "name": "solc",
    "version": "0.5.8+commit.23d335f2.Emscripten.clang"
  },
  "schemaVersion": "3.0.16",
  "updatedAt": "2019-09-22T04:03:29.467Z",
  "devdoc": {
    "methods": {
      "buy(string,uint256,address,address)": {
        "details": "Buy insurance for a flight     "
      },
      "constructor": {
        "details": "Constructor     The deploying account becomes contractOwner"
      },
      "creditInsurees(string,uint256,address)": {
        "details": "Credits payouts to insurees"
      },
      "fundForwarded(address)": {
        "details": "Initial funding for the insurance. Unless there are too many delayed flights     resulting in insurance payouts, the contract should be self-sustaining     "
      },
      "isOperational()": {
        "details": "Get operating status of contract",
        "return": "A bool that is the current operating status"
      },
      "pay(address)": {
        "details": "Transfers eligible payout funds to insuree    "
      },
      "registerAirline(string,address)": {
        "details": "Add an airline to the registration queue     Can only be called from FlightSuretyApp contract     "
      },
      "setOperatingStatus(bool)": {
        "details": "Sets contract operations on/off    * When operational mode is disabled, all write transactions except for this one will fail"
      }
    }
  },
  "userdoc": {
    "methods": {}
  }
}