{
  "contractName": "FlightSuretyData",
  "abi": [
    {
      "constant": true,
      "inputs": [],
      "name": "AIRLINE_MIN_FUNDS",
      "outputs": [
        {
          "name": "",
          "type": "uint256"
        }
      ],
      "payable": false,
      "stateMutability": "view",
      "type": "function"
    },
    {
      "constant": true,
      "inputs": [],
      "name": "INSURANCE_MAX_FEE",
      "outputs": [
        {
          "name": "",
          "type": "uint256"
        }
      ],
      "payable": false,
      "stateMutability": "view",
      "type": "function"
    },
    {
      "inputs": [],
      "payable": false,
      "stateMutability": "nonpayable",
      "type": "constructor"
    },
    {
      "payable": true,
      "stateMutability": "payable",
      "type": "fallback"
    },
    {
      "anonymous": false,
      "inputs": [
        {
          "indexed": false,
          "name": "insuree",
          "type": "address"
        },
        {
          "indexed": false,
          "name": "credit",
          "type": "uint256"
        },
        {
          "indexed": false,
          "name": "total",
          "type": "uint256"
        }
      ],
      "name": "InsureeCredited",
      "type": "event"
    },
    {
      "anonymous": false,
      "inputs": [
        {
          "indexed": false,
          "name": "i",
          "type": "uint256"
        },
        {
          "indexed": false,
          "name": "insuree",
          "type": "address"
        },
        {
          "indexed": false,
          "name": "id",
          "type": "bytes32"
        },
        {
          "indexed": false,
          "name": "airline",
          "type": "address"
        },
        {
          "indexed": false,
          "name": "flight",
          "type": "string"
        },
        {
          "indexed": false,
          "name": "ftimestamp",
          "type": "uint256"
        },
        {
          "indexed": false,
          "name": "value",
          "type": "uint256"
        }
      ],
      "name": "debug",
      "type": "event"
    },
    {
      "constant": true,
      "inputs": [],
      "name": "isOperational",
      "outputs": [
        {
          "name": "",
          "type": "bool"
        }
      ],
      "payable": false,
      "stateMutability": "view",
      "type": "function"
    },
    {
      "constant": false,
      "inputs": [
        {
          "name": "mode",
          "type": "bool"
        }
      ],
      "name": "setOperatingStatus",
      "outputs": [],
      "payable": false,
      "stateMutability": "nonpayable",
      "type": "function"
    },
    {
      "constant": false,
      "inputs": [
        {
          "name": "caller",
          "type": "address"
        }
      ],
      "name": "authorizeCaller",
      "outputs": [],
      "payable": false,
      "stateMutability": "nonpayable",
      "type": "function"
    },
    {
      "constant": false,
      "inputs": [
        {
          "name": "caller",
          "type": "address"
        }
      ],
      "name": "deauthorizeCaller",
      "outputs": [],
      "payable": false,
      "stateMutability": "nonpayable",
      "type": "function"
    },
    {
      "constant": false,
      "inputs": [
        {
          "name": "name",
          "type": "string"
        },
        {
          "name": "wallet",
          "type": "address"
        }
      ],
      "name": "registerAirline",
      "outputs": [],
      "payable": false,
      "stateMutability": "nonpayable",
      "type": "function"
    },
    {
      "constant": true,
      "inputs": [
        {
          "name": "wallet",
          "type": "address"
        }
      ],
      "name": "isAirlineRegistered",
      "outputs": [
        {
          "name": "",
          "type": "bool"
        }
      ],
      "payable": false,
      "stateMutability": "view",
      "type": "function"
    },
    {
      "constant": true,
      "inputs": [
        {
          "name": "wallet",
          "type": "address"
        }
      ],
      "name": "isAirlineFunded",
      "outputs": [
        {
          "name": "",
          "type": "bool"
        }
      ],
      "payable": false,
      "stateMutability": "view",
      "type": "function"
    },
    {
      "constant": true,
      "inputs": [],
      "name": "getAirlineCount",
      "outputs": [
        {
          "name": "",
          "type": "uint256"
        }
      ],
      "payable": false,
      "stateMutability": "view",
      "type": "function"
    },
    {
      "constant": false,
      "inputs": [
        {
          "name": "name",
          "type": "string"
        },
        {
          "name": "timestamp",
          "type": "uint256"
        },
        {
          "name": "airline",
          "type": "address"
        }
      ],
      "name": "registerFlight",
      "outputs": [],
      "payable": false,
      "stateMutability": "nonpayable",
      "type": "function"
    },
    {
      "constant": true,
      "inputs": [
        {
          "name": "name",
          "type": "string"
        },
        {
          "name": "timestamp",
          "type": "uint256"
        },
        {
          "name": "airline",
          "type": "address"
        }
      ],
      "name": "isFlightRegistered",
      "outputs": [
        {
          "name": "",
          "type": "bool"
        }
      ],
      "payable": false,
      "stateMutability": "view",
      "type": "function"
    },
    {
      "constant": false,
      "inputs": [
        {
          "name": "flight",
          "type": "string"
        },
        {
          "name": "timestamp",
          "type": "uint256"
        },
        {
          "name": "airline",
          "type": "address"
        },
        {
          "name": "insuree",
          "type": "address"
        }
      ],
      "name": "buy",
      "outputs": [],
      "payable": true,
      "stateMutability": "payable",
      "type": "function"
    },
    {
      "constant": false,
      "inputs": [
        {
          "name": "flight",
          "type": "string"
        },
        {
          "name": "timestamp",
          "type": "uint256"
        },
        {
          "name": "airline",
          "type": "address"
        }
      ],
      "name": "creditInsurees",
      "outputs": [],
      "payable": false,
      "stateMutability": "nonpayable",
      "type": "function"
    },
    {
      "constant": false,
      "inputs": [
        {
          "name": "insuree",
          "type": "address"
        }
      ],
      "name": "pay",
      "outputs": [],
      "payable": true,
      "stateMutability": "payable",
      "type": "function"
    },
    {
      "constant": false,
      "inputs": [
        {
          "name": "sender",
          "type": "address"
        }
      ],
      "name": "fund",
      "outputs": [],
      "payable": true,
      "stateMutability": "payable",
      "type": "function"
    }
  ],
  "bytecode": "0x60806040526001600060146101000a81548160ff0219169083151502179055506000600155600060025560006040519080825280602002602001820160405280156200005a5781602001602082028038833980820191505090505b50600590805190602001906200007292919062000111565b506000604051908082528060200260200182016040528015620000a45781602001602082028038833980820191505090505b5060079080519060200190620000bc92919062000169565b50348015620000ca57600080fd5b50336000806101000a81548173ffffffffffffffffffffffffffffffffffffffff021916908373ffffffffffffffffffffffffffffffffffffffff16021790555062000266565b82805482825590600052602060002090810192821562000156579160200282015b828111156200015557825182906000191690559160200191906001019062000132565b5b509050620001659190620001f8565b5090565b828054828255906000526020600020908101928215620001e5579160200282015b82811115620001e45782518260006101000a81548173ffffffffffffffffffffffffffffffffffffffff021916908373ffffffffffffffffffffffffffffffffffffffff160217905550916020019190600101906200018a565b5b509050620001f4919062000220565b5090565b6200021d91905b8082111562000219576000816000905550600101620001ff565b5090565b90565b6200026391905b808211156200025f57600081816101000a81549073ffffffffffffffffffffffffffffffffffffffff02191690555060010162000227565b5090565b90565b61232280620002766000396000f3006080604052600436106100e6576000357c0100000000000000000000000000000000000000000000000000000000900463ffffffff168063010c5c97146101f55780630c11dedd146102505780630e2c412914610286578063110466ed146102e157806323024408146103105780632c388d5d146103465780634266ed6a1461038957806365c152f7146103ee5780636873c21d1461045357806373402358146104965780637ef9857a146104c15780637f9e18081461053957806382a4f7bf14610564578063b7a8b43d146105e1578063cd905dff1461060c578063f53b6d651461063b575b60003411151561015e576040517f08c379a00000000000000000000000000000000000000000000000000000000081526004018080602001828103825260188152602001807f4e6f2066756e647320617265206e6f7420616c6c6f776564000000000000000081525060200191505060405180910390fd5b6101b034600960003373ffffffffffffffffffffffffffffffffffffffff1673ffffffffffffffffffffffffffffffffffffffff1681526020019081526020016000205461069690919063ffffffff16565b600960003373ffffffffffffffffffffffffffffffffffffffff1673ffffffffffffffffffffffffffffffffffffffff16815260200190815260200160002081905550005b34801561020157600080fd5b50610236600480360381019080803573ffffffffffffffffffffffffffffffffffffffff1690602001909291905050506106b2565b604051808215151515815260200191505060405180910390f35b610284600480360381019080803573ffffffffffffffffffffffffffffffffffffffff16906020019092919050505061070b565b005b34801561029257600080fd5b506102df600480360381019080803590602001908201803590602001919091929391929390803573ffffffffffffffffffffffffffffffffffffffff169060200190929190505050610896565b005b3480156102ed57600080fd5b5061030e600480360381019080803515159060200190929190505050610a9a565b005b610344600480360381019080803573ffffffffffffffffffffffffffffffffffffffff169060200190929190505050610b7b565b005b34801561035257600080fd5b50610387600480360381019080803573ffffffffffffffffffffffffffffffffffffffff169060200190929190505050610d42565b005b34801561039557600080fd5b506103ec60048036038101908080359060200190820180359060200191909192939192939080359060200190929190803573ffffffffffffffffffffffffffffffffffffffff169060200190929190505050610f05565b005b3480156103fa57600080fd5b5061045160048036038101908080359060200190820180359060200191909192939192939080359060200190929190803573ffffffffffffffffffffffffffffffffffffffff16906020019092919050505061166d565b005b34801561045f57600080fd5b50610494600480360381019080803573ffffffffffffffffffffffffffffffffffffffff16906020019092919050505061195c565b005b3480156104a257600080fd5b506104ab611b1f565b6040518082815260200191505060405180910390f35b61053760048036038101908080359060200190820180359060200191909192939192939080359060200190929190803573ffffffffffffffffffffffffffffffffffffffff169060200190929190803573ffffffffffffffffffffffffffffffffffffffff169060200190929190505050611b2b565b005b34801561054557600080fd5b5061054e611f16565b6040518082815260200191505060405180910390f35b34801561057057600080fd5b506105c760048036038101908080359060200190820180359060200191909192939192939080359060200190929190803573ffffffffffffffffffffffffffffffffffffffff169060200190929190505050611f20565b604051808215151515815260200191505060405180910390f35b3480156105ed57600080fd5b506105f6611f99565b6040518082815260200191505060405180910390f35b34801561061857600080fd5b50610621611fa5565b604051808215151515815260200191505060405180910390f35b34801561064757600080fd5b5061067c600480360381019080803573ffffffffffffffffffffffffffffffffffffffff169060200190929190505050611fbb565b604051808215151515815260200191505060405180910390f35b600081830190508281101515156106a957fe5b80905092915050565b6000600360008373ffffffffffffffffffffffffffffffffffffffff1673ffffffffffffffffffffffffffffffffffffffff16815260200190815260200160002060000160009054906101000a900460ff169050919050565b60006001600a60003373ffffffffffffffffffffffffffffffffffffffff1673ffffffffffffffffffffffffffffffffffffffff168152602001908152602001600020541415156107c4576040517f08c379a00000000000000000000000000000000000000000000000000000000081526004018080602001828103825260188152602001807f43616c6c6572206973206e6f7420617574686f72697a6564000000000000000081525060200191505060405180910390fd5b600860008373ffffffffffffffffffffffffffffffffffffffff1673ffffffffffffffffffffffffffffffffffffffff1681526020019081526020016000205490506000600860008473ffffffffffffffffffffffffffffffffffffffff1673ffffffffffffffffffffffffffffffffffffffff168152602001908152602001600020819055508173ffffffffffffffffffffffffffffffffffffffff166108fc829081150290604051600060405180830381858888f19350505050158015610891573d6000803e3d6000fd5b505050565b6001600a60003373ffffffffffffffffffffffffffffffffffffffff1673ffffffffffffffffffffffffffffffffffffffff1681526020019081526020016000205414151561094d576040517f08c379a00000000000000000000000000000000000000000000000000000000081526004018080602001828103825260188152602001807f43616c6c6572206973206e6f7420617574686f72697a6564000000000000000081525060200191505060405180910390fd5b60606040519081016040528060011515815260200184848080601f01602080910402602001604051908101604052809392919081815260200183838082843782019150505050505081526020018273ffffffffffffffffffffffffffffffffffffffff16815250600360008373ffffffffffffffffffffffffffffffffffffffff1673ffffffffffffffffffffffffffffffffffffffff16815260200190815260200160002060008201518160000160006101000a81548160ff0219169083151502179055506020820151816001019080519060200190610a2f92919061214a565b5060408201518160020160006101000a81548173ffffffffffffffffffffffffffffffffffffffff021916908373ffffffffffffffffffffffffffffffffffffffff160217905550905050610a8f6001805461069690919063ffffffff16565b600181905550505050565b6000809054906101000a900473ffffffffffffffffffffffffffffffffffffffff1673ffffffffffffffffffffffffffffffffffffffff163373ffffffffffffffffffffffffffffffffffffffff16141515610b5e576040517f08c379a000000000000000000000000000000000000000000000000000000000815260040180806020018281038252601c8152602001807f43616c6c6572206973206e6f7420636f6e7472616374206f776e65720000000081525060200191505060405180910390fd5b80600060146101000a81548160ff02191690831515021790555050565b6001600a60003373ffffffffffffffffffffffffffffffffffffffff1673ffffffffffffffffffffffffffffffffffffffff16815260200190815260200160002054141515610c32576040517f08c379a00000000000000000000000000000000000000000000000000000000081526004018080602001828103825260188152602001807f43616c6c6572206973206e6f7420617574686f72697a6564000000000000000081525060200191505060405180910390fd5b600034111515610caa576040517f08c379a00000000000000000000000000000000000000000000000000000000081526004018080602001828103825260188152602001807f4e6f2066756e647320617265206e6f7420616c6c6f776564000000000000000081525060200191505060405180910390fd5b610cfc34600960008473ffffffffffffffffffffffffffffffffffffffff1673ffffffffffffffffffffffffffffffffffffffff1681526020019081526020016000205461069690919063ffffffff16565b600960008373ffffffffffffffffffffffffffffffffffffffff1673ffffffffffffffffffffffffffffffffffffffff1681526020019081526020016000208190555050565b6000809054906101000a900473ffffffffffffffffffffffffffffffffffffffff1673ffffffffffffffffffffffffffffffffffffffff163373ffffffffffffffffffffffffffffffffffffffff16141515610e06576040517f08c379a000000000000000000000000000000000000000000000000000000000815260040180806020018281038252601c8152602001807f43616c6c6572206973206e6f7420636f6e7472616374206f776e65720000000081525060200191505060405180910390fd5b6000600a60008373ffffffffffffffffffffffffffffffffffffffff1673ffffffffffffffffffffffffffffffffffffffff16815260200190815260200160002054141515610ebd576040517f08c379a000000000000000000000000000000000000000000000000000000000815260040180806020018281038252601a8152602001807f4164647265737320616c726561647920617574686f72697a656400000000000081525060200191505060405180910390fd5b6001600a60008373ffffffffffffffffffffffffffffffffffffffff1673ffffffffffffffffffffffffffffffffffffffff1681526020019081526020016000208190555050565b60008060008060008060006001600a60003373ffffffffffffffffffffffffffffffffffffffff1673ffffffffffffffffffffffffffffffffffffffff16815260200190815260200160002054141515610fc7576040517f08c379a00000000000000000000000000000000000000000000000000000000081526004018080602001828103825260188152602001807f43616c6c6572206973206e6f7420617574686f72697a6564000000000000000081525060200191505060405180910390fd5b611004888c8c8080601f0160208091040260200160405190810160405280939291908181526020018383808284378201915050505050508b61200f565b9650600095505b600780549050861015611660576006600087815260200190815260200160002060040160009054906101000a900473ffffffffffffffffffffffffffffffffffffffff16945061115f6006600088815260200190815260200160002060000160010160019054906101000a900473ffffffffffffffffffffffffffffffffffffffff16600660008981526020019081526020016000206000016000018054600181600116156101000203166002900480601f01602080910402602001604051908101604052809291908181526020018280546001816001161561010002031660029004801561113b5780601f106111105761010080835404028352916020019161113b565b820191906000526020600020905b81548152906001019060200180831161111e57829003601f168201915b5050505050600660008a81526020019081526020016000206000016002015461200f565b93507f4fb363c2ce8b0a3816b5d4f90d7d960963aa82b61609aaca13516b9ab44d5eb6866006600089815260200190815260200160002060040160009054906101000a900473ffffffffffffffffffffffffffffffffffffffff16898b8f8f8f6000604051808981526020018873ffffffffffffffffffffffffffffffffffffffff1673ffffffffffffffffffffffffffffffffffffffff16815260200187600019166000191681526020018673ffffffffffffffffffffffffffffffffffffffff1673ffffffffffffffffffffffffffffffffffffffff1681526020018060200184815260200183815260200182810382528686828181526020019250808284378201915050995050505050505050505060405180910390a17f4fb363c2ce8b0a3816b5d4f90d7d960963aa82b61609aaca13516b9ab44d5eb6866006600089815260200190815260200160002060040160009054906101000a900473ffffffffffffffffffffffffffffffffffffffff1686600660008b815260200190815260200160002060000160010160019054906101000a900473ffffffffffffffffffffffffffffffffffffffff16600660008c8152602001908152602001600020600001600001600660008d815260200190815260200160002060000160020154600660008e815260200190815260200160002060030154604051808881526020018773ffffffffffffffffffffffffffffffffffffffff1673ffffffffffffffffffffffffffffffffffffffff16815260200186600019166000191681526020018573ffffffffffffffffffffffffffffffffffffffff1673ffffffffffffffffffffffffffffffffffffffff168152602001806020018481526020018381526020018281038252858181546001816001161561010002031660029004815260200191508054600181600116156101000203166002900480156114645780601f1061143957610100808354040283529160200191611464565b820191906000526020600020905b81548152906001019060200180831161144757829003601f168201915b50509850505050505050505060405180910390a160006006600088815260200190815260200160002060030154141561149c57611655565b83600019168760001916141561165457600660008781526020019081526020016000206003015492506114d960028461213490919063ffffffff16565b91506000600660008881526020019081526020016000206003018190555061150a828461069690919063ffffffff16565b905061155e81600860008873ffffffffffffffffffffffffffffffffffffffff1673ffffffffffffffffffffffffffffffffffffffff1681526020019081526020016000205461069690919063ffffffff16565b600860008773ffffffffffffffffffffffffffffffffffffffff1673ffffffffffffffffffffffffffffffffffffffff168152602001908152602001600020819055507f3eed7b857edadc1405e4ab4dc8177afc8eb53be4bc241e7f42570eff8f1912ab8582600860008973ffffffffffffffffffffffffffffffffffffffff1673ffffffffffffffffffffffffffffffffffffffff16815260200190815260200160002054604051808473ffffffffffffffffffffffffffffffffffffffff1673ffffffffffffffffffffffffffffffffffffffff168152602001838152602001828152602001935050505060405180910390a15b5b85600101955061100b565b5050505050505050505050565b60006001600a60003373ffffffffffffffffffffffffffffffffffffffff1673ffffffffffffffffffffffffffffffffffffffff16815260200190815260200160002054141515611726576040517f08c379a00000000000000000000000000000000000000000000000000000000081526004018080602001828103825260188152602001807f43616c6c6572206973206e6f7420617574686f72697a6564000000000000000081525060200191505060405180910390fd5b6117638286868080601f0160208091040260200160405190810160405280939291908181526020018383808284378201915050505050508561200f565b905060046000826000191660001916815260200190815260200160002060010160009054906101000a900460ff16151515611806576040517f08c379a000000000000000000000000000000000000000000000000000000000815260040180806020018281038252601d8152602001807f466c6967687420697320616c726561647920726567697374657265642e00000081525060200191505060405180910390fd5b848460046000846000191660001916815260200190815260200160002060000191906118339291906121ca565b50600160046000836000191660001916815260200190815260200160002060010160006101000a81548160ff0219169083151502179055508160046000836000191660001916815260200190815260200160002060010160016101000a81548173ffffffffffffffffffffffffffffffffffffffff021916908373ffffffffffffffffffffffffffffffffffffffff160217905550600060046000836000191660001916815260200190815260200160002060010160156101000a81548160ff021916908360ff160217905550826004600083600019166000191681526020019081526020016000206002018190555060058190806001815401808255809150509060018203906000526020600020016000909192909190915090600019169055505050505050565b6000809054906101000a900473ffffffffffffffffffffffffffffffffffffffff1673ffffffffffffffffffffffffffffffffffffffff163373ffffffffffffffffffffffffffffffffffffffff16141515611a20576040517f08c379a000000000000000000000000000000000000000000000000000000000815260040180806020018281038252601c8152602001807f43616c6c6572206973206e6f7420636f6e7472616374206f776e65720000000081525060200191505060405180910390fd5b6001600a60008373ffffffffffffffffffffffffffffffffffffffff1673ffffffffffffffffffffffffffffffffffffffff16815260200190815260200160002054141515611ad7576040517f08c379a000000000000000000000000000000000000000000000000000000000815260040180806020018281038252601a8152602001807f4164647265737320776173206e6f7420617574686f72697a656400000000000081525060200191505060405180910390fd5b6000600a60008373ffffffffffffffffffffffffffffffffffffffff1673ffffffffffffffffffffffffffffffffffffffff1681526020019081526020016000208190555050565b678ac7230489e8000081565b6000806001600a60003373ffffffffffffffffffffffffffffffffffffffff1673ffffffffffffffffffffffffffffffffffffffff16815260200190815260200160002054141515611be5576040517f08c379a00000000000000000000000000000000000000000000000000000000081526004018080602001828103825260188152602001807f43616c6c6572206973206e6f7420617574686f72697a6564000000000000000081525060200191505060405180910390fd5b611c228488888080601f0160208091040260200160405190810160405280939291908181526020018383808284378201915050505050508761200f565b915060046000836000191660001916815260200190815260200160002060010160009054906101000a900460ff161515611cc4576040517f08c379a00000000000000000000000000000000000000000000000000000000081526004018080602001828103825260158152602001807f466c6967687420646f6573206e6f74206578697374000000000000000000000081525060200191505060405180910390fd5b60009050670de0b6b3a764000034101515611ce957670de0b6b3a76400009050611ced565b3490505b60046000836000191660001916815260200190815260200160002060066000600254815260200190815260200160002060000160008201816000019080546001816001161561010002031660029004611d4792919061224a565b506001820160009054906101000a900460ff168160010160006101000a81548160ff0219169083151502179055506001820160019054906101000a900473ffffffffffffffffffffffffffffffffffffffff168160010160016101000a81548173ffffffffffffffffffffffffffffffffffffffff021916908373ffffffffffffffffffffffffffffffffffffffff1602179055506001820160159054906101000a900460ff168160010160156101000a81548160ff021916908360ff160217905550600282015481600201559050508260066000600254815260200190815260200160002060040160006101000a81548173ffffffffffffffffffffffffffffffffffffffff021916908373ffffffffffffffffffffffffffffffffffffffff1602179055508060066000600254815260200190815260200160002060030181905550611ea1600160025461069690919063ffffffff16565b60028190555060078390806001815401808255809150509060018203906000526020600020016000909192909190916101000a81548173ffffffffffffffffffffffffffffffffffffffff021916908373ffffffffffffffffffffffffffffffffffffffff1602179055505050505050505050565b6000600154905090565b600080611f608387878080601f0160208091040260200160405190810160405280939291908181526020018383808284378201915050505050508661200f565b905060046000826000191660001916815260200190815260200160002060010160009054906101000a900460ff16915050949350505050565b670de0b6b3a764000081565b60008060149054906101000a900460ff16905090565b6000678ac7230489e80000600960008473ffffffffffffffffffffffffffffffffffffffff1673ffffffffffffffffffffffffffffffffffffffff1681526020019081526020016000205410159050919050565b6000838383604051602001808473ffffffffffffffffffffffffffffffffffffffff1673ffffffffffffffffffffffffffffffffffffffff166c0100000000000000000000000002815260140183805190602001908083835b60208310151561208d5780518252602082019150602081019050602083039250612068565b6001836020036101000a03801982511681845116808217855250505050505090500182815260200193505050506040516020818303038152906040526040518082805190602001908083835b6020831015156120fe57805182526020820191506020810190506020830392506120d9565b6001836020036101000a038019825116818451168082178552505050505050905001915050604051809103902090509392505050565b6000818381151561214157fe5b04905092915050565b828054600181600116156101000203166002900490600052602060002090601f016020900481019282601f1061218b57805160ff19168380011785556121b9565b828001600101855582156121b9579182015b828111156121b857825182559160200191906001019061219d565b5b5090506121c691906122d1565b5090565b828054600181600116156101000203166002900490600052602060002090601f016020900481019282601f1061220b57803560ff1916838001178555612239565b82800160010185558215612239579182015b8281111561223857823582559160200191906001019061221d565b5b50905061224691906122d1565b5090565b828054600181600116156101000203166002900490600052602060002090601f016020900481019282601f1061228357805485556122c0565b828001600101855582156122c057600052602060002091601f016020900482015b828111156122bf5782548255916001019190600101906122a4565b5b5090506122cd91906122d1565b5090565b6122f391905b808211156122ef5760008160009055506001016122d7565b5090565b905600a165627a7a7230582083acc957575dc07df44a76adbabe2e15c180a87eef6a3b04449984e3951a6ff40029",
  "source": "pragma solidity ^0.4.25;\n\nimport \"../node_modules/openzeppelin-solidity/contracts/math/SafeMath.sol\";\n\ncontract FlightSuretyData {\n    using SafeMath for uint256;\n\n    /********************************************************************************************/\n    /*                                       DATA VARIABLES                                     */\n    /********************************************************************************************/\n\n    address private contractOwner;                      // Account used to deploy contract\n    bool private operational = true;                    // Blocks all state changes throughout the contract if false\n\n    struct Airline {\n        bool isRegistered;\n        string name;\n        address wallet;\n    }\n    struct Flight {\n        string name;\n        bool isRegistered;\n        address airline;\n        uint8 statusCode;\n        uint256 updatedTimestamp;\n    }\n    struct Insurance {\n        Flight flight;\n        uint256 value;\n        address customer;\n    }\n\n    uint private airlineCount = 0;                      // Count how many airlines are registerd\n    uint private insuranceCount = 0;                    // Count how many insurances are purchased\n\n    mapping(address => Airline) private airlines;       // Mapping for storing airlines\n    mapping(bytes32 => Flight) private flights;         // Mapping for storing flights\n    bytes32[] private flight_keys = new bytes32[](0);   // To track all the flights registered\n    mapping(uint => Insurance) private insurances;      // Mapping for storing insurances\n    address[] private insurees = new address[](0);      // To track all the passenger addresses that have purchased the insurance\n    mapping(address => uint256) private refunds;        // Mapping for storing insurance refund refunds\n    mapping(address => uint256) private funds;          // Mapping for storing funds\n    mapping(address => uint256) private authorizedContracts;    //Mapping for storing authorizedContracts\n    \n    uint256 public constant INSURANCE_MAX_FEE = 1 ether;    //maximum value of purchasing flight insurance\n    uint256 public constant AIRLINE_MIN_FUNDS = 10 ether;   //minimum value of participating in contract\n\n    /********************************************************************************************/\n    /*                                       EVENT DEFINITIONS                                  */\n    /********************************************************************************************/\n    event InsureeCredited(address insuree, uint credit, uint total);\n    event debug(uint i, address insuree, bytes32 id, address airline, string flight, uint256 ftimestamp, uint256 value);\n\n\n    /**\n    * @dev Constructor\n    *      The deploying account becomes contractOwner\n    */\n    constructor() public {\n        contractOwner = msg.sender;\n    }\n\n    /********************************************************************************************/\n    /*                                       FUNCTION MODIFIERS                                 */\n    /********************************************************************************************/\n\n    // Modifiers help avoid duplication of code. They are typically used to validate something\n    // before a function is allowed to be executed.\n\n    /**\n    * @dev Modifier that requires the \"operational\" boolean variable to be \"true\"\n    *      This is used on all state changing functions to pause the contract in\n    *      the event there is an issue that needs to be fixed\n    */\n    modifier requireIsOperational() {\n        require(operational, \"Contract is currently not operational\");\n        _;  // All modifiers require an \"_\" which indicates where the function body will be added\n    }\n\n    /**\n    * @dev Modifier that requires the \"ContractOwner\" account to be the function caller\n    */\n    modifier requireContractOwner(){\n        require(msg.sender == contractOwner, \"Caller is not contract owner\");\n        _;\n    }\n\n    modifier isCallerAuthorized() {\n        require(authorizedContracts[msg.sender] == 1, \"Caller is not authorized\");\n        _;\n    }\n\n    /********************************************************************************************/\n    /*                                       UTILITY FUNCTIONS                                  */\n    /********************************************************************************************/\n\n    /**\n    * @dev Get operating status of contract\n    *\n    * @return A bool that is the current operating status\n    */\n    function isOperational() public view returns(bool) {\n        return operational;\n    }\n\n\n    /**\n    * @dev Sets contract operations on/off\n    *\n    * When operational mode is disabled, all write transactions except for this one will fail\n    */\n    function setOperatingStatus(bool mode) external requireContractOwner {\n        operational = mode;\n    }\n\n    function authorizeCaller(address caller) public requireContractOwner {\n        require(authorizedContracts[caller] == 0, \"Address already authorized\");\n        authorizedContracts[caller] = 1;\n    }\n\n    function deauthorizeCaller(address caller) public requireContractOwner {\n        require(authorizedContracts[caller] == 1, \"Address was not authorized\");\n        authorizedContracts[caller] = 0;\n    }\n\n    /********************************************************************************************/\n    /*                                     SMART CONTRACT FUNCTIONS                             */\n    /********************************************************************************************/\n\n   /**\n    * @dev Add an airline to the registration queue\n    *      Can only be called from FlightSuretyApp contract\n    *\n    */\n    function registerAirline (string name, address wallet) external isCallerAuthorized {\n        airlines[wallet] = Airline({\n            isRegistered: true,\n            name: name,\n            wallet: wallet\n        });\n        airlineCount = airlineCount.add(1);\n    }\n\n    function isAirlineRegistered(address wallet) external view returns (bool) {\n        return airlines[wallet].isRegistered;\n    }\n\n    function isAirlineFunded (address wallet) external view returns (bool) {\n        return funds[wallet] >= AIRLINE_MIN_FUNDS;\n    }\n\n    function getAirlineCount () external view returns (uint256) {\n        return airlineCount;\n    }\n   /**\n    * @dev Register a future flight for insuring.\n    *\n    */\n    function registerFlight(string name, uint256 timestamp, address airline) external isCallerAuthorized {\n        bytes32 id = getFlightKey(airline, name, timestamp);\n        require(!flights[id].isRegistered, \"Flight is already registered.\");\n        flights[id].name = name;\n        flights[id].isRegistered = true;\n        flights[id].airline = airline;\n        flights[id].statusCode = 0;\n        flights[id].updatedTimestamp = timestamp;\n        flight_keys.push(id);\n    }\n    function isFlightRegistered(string name, uint256 timestamp, address airline) external view returns (bool) {\n        bytes32 id = getFlightKey(airline, name, timestamp);\n        return flights[id].isRegistered;\n    }\n   /**\n    * @dev Buy insurance for a flight\n    * passengers purchase insurance prior to flight\n    */\n    function buy(string flight, uint256 timestamp, address airline, address insuree)external payable isCallerAuthorized{\n        bytes32 id = getFlightKey(airline, flight, timestamp);\n        require(flights[id].isRegistered, \"Flight does not exist\");\n\n        uint insurance_value = 0;\n\n        if (msg.value >= INSURANCE_MAX_FEE) {\n            insurance_value = INSURANCE_MAX_FEE;\n        } else {\n            insurance_value = msg.value;\n        }\n\n        insurances[insuranceCount].flight = flights[id];\n        insurances[insuranceCount].customer = insuree;\n        insurances[insuranceCount].value = insurance_value;\n        insuranceCount = insuranceCount.add(1);\n        insurees.push(insuree);\n    }\n\n    /**\n     *  @dev Credits refund payouts to insurees\n     *  If flight is delayed due to airline fault,\n     *  passengers are paid 1.5X the amount they paid for the insurance\n    */\n    function creditInsurees (string flight, uint256 timestamp, address airline) external isCallerAuthorized{\n        bytes32 id = getFlightKey(airline, flight, timestamp);\n        for (uint i = 0; i < insurees.length; ++i) {\n            address insuree = insurances[i].customer;\n            bytes32 id2 = getFlightKey(insurances[i].flight.airline, insurances[i].flight.name, insurances[i].flight.updatedTimestamp);\n            emit debug(i, insurances[i].customer, id, airline, flight, timestamp, 0);\n            emit debug(i, insurances[i].customer, id2, insurances[i].flight.airline, insurances[i].flight.name, insurances[i].flight.updatedTimestamp, insurances[i].value);\n            if(insurances[i].value == 0) continue;\n            if (id == id2) {\n                uint256 value = insurances[i].value;\n                uint256 half = value.div(2);\n                insurances[i].value = 0;\n                uint256 refund = value.add(half);                   // calculating 1.5X the amount the passenger paid for the insurance\n                refunds[insuree] = refunds[insuree].add(refund);\n                emit InsureeCredited(insuree, refund, refunds[insuree]);\n            }\n        }\n    }\n\n    /**\n     *  @dev Transfers eligible payout funds to insuree\n     *\n    */\n    function pay(address insuree)external payable isCallerAuthorized{\n        uint refund = refunds[insuree];\n        refunds[insuree] = 0;\n        insuree.transfer(refund);\n    }\n\n   /**\n    * @dev Initial funding for the insurance. Unless there are too many delayed flights\n    *      resulting in insurance refunds, the contract should be self-sustaining\n    *\n    */\n    function fund(address sender) external payable isCallerAuthorized{\n        require(msg.value > 0, \"No funds are not allowed\");\n        funds[sender] = funds[sender].add(msg.value);\n    }\n\n\n    function getFlightKey(address airline, string memory flight, uint256 timestamp) pure internal returns(bytes32) {\n        return keccak256(abi.encodePacked(airline, flight, timestamp));\n    }\n\n    /**\n    * @dev Fallback function for funding smart contract.\n    *\n    */\n    function() external payable{\n        require(msg.value > 0, \"No funds are not allowed\");\n        funds[msg.sender] = funds[msg.sender].add(msg.value);\n    }\n}\n\n",
  "sourcePath": "/Users/rinatakahashi/Desktop/Development/Udacity/5.Daap_with_autonomous_SmartContract/BDND-project4-FlightSurety/contracts/FlightSuretyData.sol",
  "compiler": {
    "name": "solc",
    "version": "0.4.26+commit.4563c3fc.Emscripten.clang"
  },
  "schemaVersion": "3.0.16",
  "updatedAt": "2019-09-16T08:10:24.372Z",
  "devdoc": {
    "methods": {
      "buy(string,uint256,address,address)": {
        "details": "Buy insurance for a flight passengers purchase insurance prior to flight"
      },
      "creditInsurees(string,uint256,address)": {
        "details": "Credits refund payouts to insurees If flight is delayed due to airline fault, passengers are paid 1.5X the amount they paid for the insurance"
      },
      "fund(address)": {
        "details": "Initial funding for the insurance. Unless there are too many delayed flights     resulting in insurance refunds, the contract should be self-sustaining    "
      },
      "isOperational()": {
        "details": "Get operating status of contract",
        "return": "A bool that is the current operating status"
      },
      "pay(address)": {
        "details": "Transfers eligible payout funds to insuree    "
      },
      "registerAirline(string,address)": {
        "details": "Add an airline to the registration queue     Can only be called from FlightSuretyApp contract    "
      },
      "registerFlight(string,uint256,address)": {
        "details": "Register a future flight for insuring.    "
      },
      "setOperatingStatus(bool)": {
        "details": "Sets contract operations on/off    * When operational mode is disabled, all write transactions except for this one will fail"
      }
    }
  },
  "userdoc": {
    "methods": {}
  }
}